{
  "contractName": "DNS",
  "abi": [
    {
      "inputs": [],
      "stateMutability": "payable",
      "type": "constructor"
    },
    {
      "anonymous": false,
      "inputs": [
        {
          "indexed": true,
          "internalType": "address",
          "name": "owner",
          "type": "address"
        },
        {
          "indexed": true,
          "internalType": "address",
          "name": "approved",
          "type": "address"
        },
        {
          "indexed": true,
          "internalType": "uint256",
          "name": "tokenId",
          "type": "uint256"
        }
      ],
      "name": "Approval",
      "type": "event"
    },
    {
      "anonymous": false,
      "inputs": [
        {
          "indexed": true,
          "internalType": "address",
          "name": "owner",
          "type": "address"
        },
        {
          "indexed": true,
          "internalType": "address",
          "name": "operator",
          "type": "address"
        },
        {
          "indexed": false,
          "internalType": "bool",
          "name": "approved",
          "type": "bool"
        }
      ],
      "name": "ApprovalForAll",
      "type": "event"
    },
    {
      "anonymous": false,
      "inputs": [
        {
          "indexed": true,
          "internalType": "address",
          "name": "previousOwner",
          "type": "address"
        },
        {
          "indexed": true,
          "internalType": "address",
          "name": "newOwner",
          "type": "address"
        }
      ],
      "name": "OwnershipTransferred",
      "type": "event"
    },
    {
      "anonymous": false,
      "inputs": [
        {
          "indexed": false,
          "internalType": "address",
          "name": "to",
          "type": "address"
        },
        {
          "indexed": false,
          "internalType": "string",
          "name": "did",
          "type": "string"
        },
        {
          "indexed": false,
          "internalType": "string",
          "name": "name",
          "type": "string"
        }
      ],
      "name": "Registered",
      "type": "event"
    },
    {
      "anonymous": false,
      "inputs": [
        {
          "indexed": true,
          "internalType": "address",
          "name": "from",
          "type": "address"
        },
        {
          "indexed": true,
          "internalType": "address",
          "name": "to",
          "type": "address"
        },
        {
          "indexed": true,
          "internalType": "uint256",
          "name": "tokenId",
          "type": "uint256"
        }
      ],
      "name": "Transfer",
      "type": "event"
    },
    {
      "anonymous": false,
      "inputs": [
        {
          "indexed": false,
          "internalType": "string",
          "name": "did",
          "type": "string"
        },
        {
          "indexed": false,
          "internalType": "string",
          "name": "name",
          "type": "string"
        },
        {
          "indexed": false,
          "internalType": "string",
          "name": "cid",
          "type": "string"
        }
      ],
      "name": "UpdateVc",
      "type": "event"
    },
    {
      "inputs": [
        {
          "internalType": "string",
          "name": "",
          "type": "string"
        }
      ],
      "name": "addrs",
      "outputs": [
        {
          "internalType": "address",
          "name": "",
          "type": "address"
        }
      ],
      "stateMutability": "view",
      "type": "function"
    },
    {
      "inputs": [
        {
          "internalType": "address",
          "name": "to",
          "type": "address"
        },
        {
          "internalType": "uint256",
          "name": "tokenId",
          "type": "uint256"
        }
      ],
      "name": "approve",
      "outputs": [],
      "stateMutability": "nonpayable",
      "type": "function"
    },
    {
      "inputs": [
        {
          "internalType": "address",
          "name": "owner",
          "type": "address"
        }
      ],
      "name": "balanceOf",
      "outputs": [
        {
          "internalType": "uint256",
          "name": "",
          "type": "uint256"
        }
      ],
      "stateMutability": "view",
      "type": "function"
    },
    {
      "inputs": [
        {
          "internalType": "address",
          "name": "",
          "type": "address"
        }
      ],
      "name": "dids",
      "outputs": [
        {
          "internalType": "string",
          "name": "",
          "type": "string"
        }
      ],
      "stateMutability": "view",
      "type": "function"
    },
    {
      "inputs": [
        {
          "internalType": "string",
          "name": "",
          "type": "string"
        }
      ],
      "name": "domains",
      "outputs": [
        {
          "internalType": "string",
          "name": "",
          "type": "string"
        }
      ],
      "stateMutability": "view",
      "type": "function"
    },
    {
      "inputs": [
        {
          "internalType": "uint256",
          "name": "tokenId",
          "type": "uint256"
        }
      ],
      "name": "getApproved",
      "outputs": [
        {
          "internalType": "address",
          "name": "",
          "type": "address"
        }
      ],
      "stateMutability": "view",
      "type": "function"
    },
    {
      "inputs": [
        {
          "internalType": "address",
          "name": "owner",
          "type": "address"
        },
        {
          "internalType": "address",
          "name": "operator",
          "type": "address"
        }
      ],
      "name": "isApprovedForAll",
      "outputs": [
        {
          "internalType": "bool",
          "name": "",
          "type": "bool"
        }
      ],
      "stateMutability": "view",
      "type": "function"
    },
    {
      "inputs": [
        {
          "internalType": "address",
          "name": "",
          "type": "address"
        }
      ],
      "name": "isRegistered",
      "outputs": [
        {
          "internalType": "bool",
          "name": "",
          "type": "bool"
        }
      ],
      "stateMutability": "view",
      "type": "function"
    },
    {
      "inputs": [],
      "name": "name",
      "outputs": [
        {
          "internalType": "string",
          "name": "",
          "type": "string"
        }
      ],
      "stateMutability": "view",
      "type": "function"
    },
    {
      "inputs": [
        {
          "internalType": "uint256",
          "name": "",
          "type": "uint256"
        }
      ],
      "name": "names",
      "outputs": [
        {
          "internalType": "string",
          "name": "",
          "type": "string"
        }
      ],
      "stateMutability": "view",
      "type": "function"
    },
    {
      "inputs": [],
      "name": "owner",
      "outputs": [
        {
          "internalType": "address payable",
          "name": "",
          "type": "address"
        }
      ],
      "stateMutability": "view",
      "type": "function"
    },
    {
      "inputs": [
        {
          "internalType": "uint256",
          "name": "tokenId",
          "type": "uint256"
        }
      ],
      "name": "ownerOf",
      "outputs": [
        {
          "internalType": "address",
          "name": "",
          "type": "address"
        }
      ],
      "stateMutability": "view",
      "type": "function"
    },
    {
      "inputs": [
        {
          "internalType": "string",
          "name": "",
          "type": "string"
        }
      ],
      "name": "records",
      "outputs": [
        {
          "internalType": "string",
          "name": "",
          "type": "string"
        }
      ],
      "stateMutability": "view",
      "type": "function"
    },
    {
      "inputs": [
        {
          "internalType": "address",
          "name": "from",
          "type": "address"
        },
        {
          "internalType": "address",
          "name": "to",
          "type": "address"
        },
        {
          "internalType": "uint256",
          "name": "tokenId",
          "type": "uint256"
        }
      ],
      "name": "safeTransferFrom",
      "outputs": [],
      "stateMutability": "nonpayable",
      "type": "function"
    },
    {
      "inputs": [
        {
          "internalType": "address",
          "name": "from",
          "type": "address"
        },
        {
          "internalType": "address",
          "name": "to",
          "type": "address"
        },
        {
          "internalType": "uint256",
          "name": "tokenId",
          "type": "uint256"
        },
        {
          "internalType": "bytes",
          "name": "data",
          "type": "bytes"
        }
      ],
      "name": "safeTransferFrom",
      "outputs": [],
      "stateMutability": "nonpayable",
      "type": "function"
    },
    {
      "inputs": [
        {
          "internalType": "address",
          "name": "operator",
          "type": "address"
        },
        {
          "internalType": "bool",
          "name": "approved",
          "type": "bool"
        }
      ],
      "name": "setApprovalForAll",
      "outputs": [],
      "stateMutability": "nonpayable",
      "type": "function"
    },
    {
      "inputs": [
        {
          "internalType": "bytes4",
          "name": "interfaceId",
          "type": "bytes4"
        }
      ],
      "name": "supportsInterface",
      "outputs": [
        {
          "internalType": "bool",
          "name": "",
          "type": "bool"
        }
      ],
      "stateMutability": "view",
      "type": "function"
    },
    {
      "inputs": [],
      "name": "symbol",
      "outputs": [
        {
          "internalType": "string",
          "name": "",
          "type": "string"
        }
      ],
      "stateMutability": "view",
      "type": "function"
    },
    {
      "inputs": [
        {
          "internalType": "uint256",
          "name": "tokenId",
          "type": "uint256"
        }
      ],
      "name": "tokenURI",
      "outputs": [
        {
          "internalType": "string",
          "name": "",
          "type": "string"
        }
      ],
      "stateMutability": "view",
      "type": "function"
    },
    {
      "inputs": [
        {
          "internalType": "address",
          "name": "from",
          "type": "address"
        },
        {
          "internalType": "address",
          "name": "to",
          "type": "address"
        },
        {
          "internalType": "uint256",
          "name": "tokenId",
          "type": "uint256"
        }
      ],
      "name": "transferFrom",
      "outputs": [],
      "stateMutability": "nonpayable",
      "type": "function"
    },
    {
      "inputs": [
        {
          "internalType": "string",
          "name": "",
          "type": "string"
        },
        {
          "internalType": "uint256",
          "name": "",
          "type": "uint256"
        }
      ],
      "name": "vcs",
      "outputs": [
        {
          "internalType": "string",
          "name": "name",
          "type": "string"
        },
        {
          "internalType": "string",
          "name": "cid",
          "type": "string"
        }
      ],
      "stateMutability": "view",
      "type": "function"
    },
    {
      "inputs": [
        {
          "internalType": "string",
          "name": "name",
          "type": "string"
        },
        {
          "internalType": "string",
          "name": "did",
          "type": "string"
        },
        {
          "internalType": "address",
          "name": "to",
          "type": "address"
        }
      ],
      "name": "register",
      "outputs": [],
      "stateMutability": "nonpayable",
      "type": "function"
    },
    {
      "inputs": [
        {
          "internalType": "string",
          "name": "name",
          "type": "string"
        }
      ],
      "name": "getDidInfo",
      "outputs": [
        {
          "internalType": "string",
          "name": "",
          "type": "string"
        }
      ],
      "stateMutability": "view",
      "type": "function"
    },
    {
      "inputs": [],
      "name": "isOwner",
      "outputs": [
        {
          "internalType": "bool",
          "name": "",
          "type": "bool"
        }
      ],
      "stateMutability": "view",
      "type": "function"
    },
    {
      "inputs": [],
      "name": "getAllNames",
      "outputs": [
        {
          "internalType": "string[]",
          "name": "",
          "type": "string[]"
        }
      ],
      "stateMutability": "view",
      "type": "function"
    },
    {
      "inputs": [
        {
          "internalType": "string",
          "name": "name",
          "type": "string"
        }
      ],
      "name": "valid",
      "outputs": [
        {
          "internalType": "bool",
          "name": "",
          "type": "bool"
        }
      ],
      "stateMutability": "pure",
      "type": "function"
    },
    {
      "inputs": [
        {
          "internalType": "string",
          "name": "_did",
          "type": "string"
        }
      ],
      "name": "getVcs",
      "outputs": [
        {
          "components": [
            {
              "internalType": "string",
              "name": "name",
              "type": "string"
            },
            {
              "internalType": "string",
              "name": "cid",
              "type": "string"
            }
          ],
          "internalType": "struct IDNS.VcInfo[]",
          "name": "",
          "type": "tuple[]"
        }
      ],
      "stateMutability": "view",
      "type": "function"
    },
    {
      "inputs": [
        {
          "internalType": "string",
          "name": "_did",
          "type": "string"
        },
        {
          "internalType": "string",
          "name": "_name",
          "type": "string"
        },
        {
          "internalType": "string",
          "name": "_cid",
          "type": "string"
        }
      ],
      "name": "updateVc",
      "outputs": [],
      "stateMutability": "nonpayable",
      "type": "function"
    },
    {
      "inputs": [
        {
          "internalType": "address",
          "name": "newOwner",
          "type": "address"
        }
      ],
      "name": "transferOwnership",
      "outputs": [],
      "stateMutability": "nonpayable",
      "type": "function"
    }
  ],
  "bytecode": "0x6080604052604051806108a0016040528061086b81526020016200535d61086b91396008908051906020019062000038929190620002a7565b506040518060400160405280600d81526020017f3c2f746578743e3c2f7376673e000000000000000000000000000000000000008152506009908051906020019062000086929190620002a7565b506040518060400160405280601081526020017f444944204e616d652053657276696365000000000000000000000000000000008152506040518060400160405280600381526020017f444e53000000000000000000000000000000000000000000000000000000000081525081600090805190602001906200010b929190620002a7565b50806001908051906020019062000124929190620002a7565b50505033600a60006101000a81548173ffffffffffffffffffffffffffffffffffffffff021916908373ffffffffffffffffffffffffffffffffffffffff160217905550620001d66040518060400160405280600681526020017f6f776e65723a0000000000000000000000000000000000000000000000000000815250600a60009054906101000a900473ffffffffffffffffffffffffffffffffffffffff16620001dc60201b62001c501760201c565b620004d9565b6200027e8282604051602401620001f592919062000440565b6040516020818303038152906040527f319af333000000000000000000000000000000000000000000000000000000007bffffffffffffffffffffffffffffffffffffffffffffffffffffffff19166020820180517bffffffffffffffffffffffffffffffffffffffffffffffffffffffff83818316178352505050506200028260201b60201c565b5050565b60006a636f6e736f6c652e6c6f6790508151602083016000808383865afa5050505050565b828054620002b590620004a3565b90600052602060002090601f016020900481019282620002d9576000855562000325565b82601f10620002f457805160ff191683800117855562000325565b8280016001018555821562000325579182015b828111156200032457825182559160200191906001019062000307565b5b50905062000334919062000338565b5090565b5b808211156200035357600081600090555060010162000339565b5090565b600081519050919050565b600082825260208201905092915050565b60005b838110156200039357808201518184015260208101905062000376565b83811115620003a3576000848401525b50505050565b6000601f19601f8301169050919050565b6000620003c78262000357565b620003d3818562000362565b9350620003e581856020860162000373565b620003f081620003a9565b840191505092915050565b600073ffffffffffffffffffffffffffffffffffffffff82169050919050565b60006200042882620003fb565b9050919050565b6200043a816200041b565b82525050565b600060408201905081810360008301526200045c8185620003ba565b90506200046d60208301846200042f565b9392505050565b7f4e487b7100000000000000000000000000000000000000000000000000000000600052602260045260246000fd5b60006002820490506001821680620004bc57607f821691505b60208210811415620004d357620004d262000474565b5b50919050565b614e7480620004e96000396000f3fe608060405234801561001057600080fd5b50600436106101cf5760003560e01c8063755c808711610104578063b5d68ccd116100a2578063e5b0ef9b11610071578063e5b0ef9b146105c5578063e985e9c5146105e1578063f2fde38b14610611578063fb825e5f1461062d576101cf565b8063b5d68ccd14610519578063b88d4fde14610549578063c3c5a54714610565578063c87b56dd14610595576101cf565b806395d89b41116100de57806395d89b411461047e5780639791c0971461049c578063a22cb465146104cc578063afe32cb2146104e8576101cf565b8063755c8087146104125780638da5cb5b146104425780638f32d59b14610460576101cf565b80633593f81b11610171578063541e771d1161014b578063541e771d146103665780635664d69c146103965780636352211e146103b257806370a08231146103e2576101cf565b80633593f81b146102ea57806342842e0e1461031a5780634622ab0314610336576101cf565b8063095ea7b3116101ad578063095ea7b31461025257806323b872dd1461026e578063264492351461028a5780632cc2548f146102ba576101cf565b806301ffc9a7146101d457806306fdde0314610204578063081812fc14610222575b600080fd5b6101ee60048036038101906101e99190613331565b61064b565b6040516101fb9190613379565b60405180910390f35b61020c61072d565b604051610219919061342d565b60405180910390f35b61023c60048036038101906102379190613485565b6107bf565b60405161024991906134f3565b60405180910390f35b61026c6004803603810190610267919061353a565b610805565b005b6102886004803603810190610283919061357a565b61091d565b005b6102a4600480360381019061029f9190613702565b61097d565b6040516102b1919061342d565b60405180910390f35b6102d460048036038101906102cf9190613702565b610a33565b6040516102e191906134f3565b60405180910390f35b61030460048036038101906102ff919061374b565b610a7c565b604051610311919061342d565b60405180910390f35b610334600480360381019061032f919061357a565b610b1c565b005b610350600480360381019061034b9190613485565b610b3c565b60405161035d919061342d565b60405180910390f35b610380600480360381019061037b9190613702565b610bdc565b60405161038d919061342d565b60405180910390f35b6103b060048036038101906103ab91906137d8565b610c92565b005b6103cc60048036038101906103c79190613485565b611074565b6040516103d991906134f3565b60405180910390f35b6103fc60048036038101906103f7919061374b565b6110fb565b604051610409919061387c565b60405180910390f35b61042c60048036038101906104279190613702565b6111b3565b60405161043991906139e7565b60405180910390f35b61044a611354565b6040516104579190613a2a565b60405180910390f35b61046861137a565b6040516104759190613379565b60405180910390f35b6104866113d2565b604051610493919061342d565b60405180910390f35b6104b660048036038101906104b19190613a45565b611464565b6040516104c39190613379565b60405180910390f35b6104e660048036038101906104e19190613abe565b611518565b005b61050260048036038101906104fd9190613afe565b61152e565b604051610510929190613b5a565b60405180910390f35b610533600480360381019061052e9190613a45565b611695565b604051610540919061342d565b60405180910390f35b610563600480360381019061055e9190613c32565b611748565b005b61057f600480360381019061057a919061374b565b6117aa565b60405161058c9190613379565b60405180910390f35b6105af60048036038101906105aa9190613485565b6117ca565b6040516105bc919061342d565b60405180910390f35b6105df60048036038101906105da9190613cb5565b6118dd565b005b6105fb60048036038101906105f69190613d5c565b6119e9565b6040516106089190613379565b60405180910390f35b61062b6004803603810190610626919061374b565b611a7d565b005b610635611b0a565b6040516106429190613e5e565b60405180910390f35b60007f80ac58cd000000000000000000000000000000000000000000000000000000007bffffffffffffffffffffffffffffffffffffffffffffffffffffffff1916827bffffffffffffffffffffffffffffffffffffffffffffffffffffffff1916148061071657507f5b5e139f000000000000000000000000000000000000000000000000000000007bffffffffffffffffffffffffffffffffffffffffffffffffffffffff1916827bffffffffffffffffffffffffffffffffffffffffffffffffffffffff1916145b80610726575061072582611cec565b5b9050919050565b60606000805461073c90613eaf565b80601f016020809104026020016040519081016040528092919081815260200182805461076890613eaf565b80156107b55780601f1061078a576101008083540402835291602001916107b5565b820191906000526020600020905b81548152906001019060200180831161079857829003601f168201915b5050505050905090565b60006107ca82611d56565b6004600083815260200190815260200160002060009054906101000a900473ffffffffffffffffffffffffffffffffffffffff169050919050565b600061081082611074565b90508073ffffffffffffffffffffffffffffffffffffffff168373ffffffffffffffffffffffffffffffffffffffff161415610881576040517f08c379a000000000000000000000000000000000000000000000000000000000815260040161087890613f53565b60405180910390fd5b8073ffffffffffffffffffffffffffffffffffffffff166108a0611da1565b73ffffffffffffffffffffffffffffffffffffffff1614806108cf57506108ce816108c9611da1565b6119e9565b5b61090e576040517f08c379a000000000000000000000000000000000000000000000000000000000815260040161090590613fe5565b60405180910390fd5b6109188383611da9565b505050565b61092e610928611da1565b82611e62565b61096d576040517f08c379a000000000000000000000000000000000000000000000000000000000815260040161096490614077565b60405180910390fd5b610978838383611ef7565b505050565b600b8180516020810182018051848252602083016020850120818352809550505050505060009150905080546109b290613eaf565b80601f01602080910402602001604051908101604052809291908181526020018280546109de90613eaf565b8015610a2b5780601f10610a0057610100808354040283529160200191610a2b565b820191906000526020600020905b815481529060010190602001808311610a0e57829003601f168201915b505050505081565b6010818051602081018201805184825260208301602085012081835280955050505050506000915054906101000a900473ffffffffffffffffffffffffffffffffffffffff1681565b600f6020528060005260406000206000915090508054610a9b90613eaf565b80601f0160208091040260200160405190810160405280929190818152602001828054610ac790613eaf565b8015610b145780601f10610ae957610100808354040283529160200191610b14565b820191906000526020600020905b815481529060010190602001808311610af757829003601f168201915b505050505081565b610b3783838360405180602001604052806000815250611748565b505050565b600d6020528060005260406000206000915090508054610b5b90613eaf565b80601f0160208091040260200160405190810160405280929190818152602001828054610b8790613eaf565b8015610bd45780601f10610ba957610100808354040283529160200191610bd4565b820191906000526020600020905b815481529060010190602001808311610bb757829003601f168201915b505050505081565b600c818051602081018201805184825260208301602085012081835280955050505050506000915090508054610c1190613eaf565b80601f0160208091040260200160405190810160405280929190818152602001828054610c3d90613eaf565b8015610c8a5780601f10610c5f57610100808354040283529160200191610c8a565b820191906000526020600020905b815481529060010190602001808311610c6d57829003601f168201915b505050505081565b610c9c8585611464565b610cdb576040517f08c379a0000000000000000000000000000000000000000000000000000000008152600401610cd2906140e3565b60405180910390fd5b600e60008273ffffffffffffffffffffffffffffffffffffffff1673ffffffffffffffffffffffffffffffffffffffff16815260200190815260200160002060009054906101000a900460ff1615610d68576040517f08c379a0000000000000000000000000000000000000000000000000000000008152600401610d5f90614175565b60405180910390fd5b60008585604051602001610d7d9291906141c5565b604051602081830303815290604052905060006008826009604051602001610da7939291906142a3565b60405160208183030381529060405290506000610dc460076121f1565b90506000610e1589898080601f016020809104026020016040519081016040528093929190818152602001838380828437600081840152601f19601f820116905080830192505050505050506121ff565b90506000610e22826123b4565b90506000610e5a86610e338761248c565b84604051602001610e4693929190614450565b60405160208183030381529060405261248c565b9050600081604051602001610e6f91906144f9565b60405160208183030381529060405290508989600b8e8e604051610e949291906141c5565b90815260200160405180910390209190610eaf929190613000565b508b8b600c8c8c604051610ec49291906141c5565b90815260200160405180910390209190610edf929190613000565b508b8b600d60008881526020019081526020016000209190610f02929190613000565b508989600f60008b73ffffffffffffffffffffffffffffffffffffffff1673ffffffffffffffffffffffffffffffffffffffff1681526020019081526020016000209190610f51929190613000565b508760108b8b604051610f659291906141c5565b908152602001604051809103902060006101000a81548173ffffffffffffffffffffffffffffffffffffffff021916908373ffffffffffffffffffffffffffffffffffffffff1602179055506001600e60008a73ffffffffffffffffffffffffffffffffffffffff1673ffffffffffffffffffffffffffffffffffffffff16815260200190815260200160002060006101000a81548160ff0219169083151502179055506110138886612624565b61101d8582612642565b61102760076126b6565b7f80788e6e1951532975ceb5ca698dfbf35d3a99bc9c440d8e1bb7301534ab72a2888b8b8f8f60405161105e959493929190614548565b60405180910390a1505050505050505050505050565b600080611080836126cc565b9050600073ffffffffffffffffffffffffffffffffffffffff168173ffffffffffffffffffffffffffffffffffffffff1614156110f2576040517f08c379a00000000000000000000000000000000000000000000000000000000081526004016110e9906145dd565b60405180910390fd5b80915050919050565b60008073ffffffffffffffffffffffffffffffffffffffff168273ffffffffffffffffffffffffffffffffffffffff16141561116c576040517f08c379a00000000000000000000000000000000000000000000000000000000081526004016111639061466f565b60405180910390fd5b600360008373ffffffffffffffffffffffffffffffffffffffff1673ffffffffffffffffffffffffffffffffffffffff168152602001908152602001600020549050919050565b60606011826040516111c5919061468f565b9081526020016040518091039020805480602002602001604051908101604052809291908181526020016000905b82821015611349578382906000526020600020906002020160405180604001604052908160008201805461122690613eaf565b80601f016020809104026020016040519081016040528092919081815260200182805461125290613eaf565b801561129f5780601f106112745761010080835404028352916020019161129f565b820191906000526020600020905b81548152906001019060200180831161128257829003601f168201915b505050505081526020016001820180546112b890613eaf565b80601f01602080910402602001604051908101604052809291908181526020018280546112e490613eaf565b80156113315780601f1061130657610100808354040283529160200191611331565b820191906000526020600020905b81548152906001019060200180831161131457829003601f168201915b505050505081525050815260200190600101906111f3565b505050509050919050565b600a60009054906101000a900473ffffffffffffffffffffffffffffffffffffffff1681565b6000600a60009054906101000a900473ffffffffffffffffffffffffffffffffffffffff1673ffffffffffffffffffffffffffffffffffffffff163373ffffffffffffffffffffffffffffffffffffffff1614905090565b6060600180546113e190613eaf565b80601f016020809104026020016040519081016040528092919081815260200182805461140d90613eaf565b801561145a5780601f1061142f5761010080835404028352916020019161145a565b820191906000526020600020905b81548152906001019060200180831161143d57829003601f168201915b5050505050905090565b600060036114b584848080601f016020809104026020016040519081016040528093929190818152602001838380828437600081840152601f19601f820116905080830192505050505050506121ff565b101580156115105750601e61150d84848080601f016020809104026020016040519081016040528093929190818152602001838380828437600081840152601f19601f820116905080830192505050505050506121ff565b11155b905092915050565b61152a611523611da1565b8383612709565b5050565b601182805160208101820180518482526020830160208501208183528095505050505050818154811061156057600080fd5b90600052602060002090600202016000915091505080600001805461158490613eaf565b80601f01602080910402602001604051908101604052809291908181526020018280546115b090613eaf565b80156115fd5780601f106115d2576101008083540402835291602001916115fd565b820191906000526020600020905b8154815290600101906020018083116115e057829003601f168201915b50505050509080600101805461161290613eaf565b80601f016020809104026020016040519081016040528092919081815260200182805461163e90613eaf565b801561168b5780601f106116605761010080835404028352916020019161168b565b820191906000526020600020905b81548152906001019060200180831161166e57829003601f168201915b5050505050905082565b6060600b83836040516116a99291906141c5565b908152602001604051809103902080546116c290613eaf565b80601f01602080910402602001604051908101604052809291908181526020018280546116ee90613eaf565b801561173b5780601f106117105761010080835404028352916020019161173b565b820191906000526020600020905b81548152906001019060200180831161171e57829003601f168201915b5050505050905092915050565b611759611753611da1565b83611e62565b611798576040517f08c379a000000000000000000000000000000000000000000000000000000000815260040161178f90614077565b60405180910390fd5b6117a484848484612876565b50505050565b600e6020528060005260406000206000915054906101000a900460ff1681565b60606117d582611d56565b60006006600084815260200190815260200160002080546117f590613eaf565b80601f016020809104026020016040519081016040528092919081815260200182805461182190613eaf565b801561186e5780601f106118435761010080835404028352916020019161186e565b820191906000526020600020905b81548152906001019060200180831161185157829003601f168201915b50505050509050600061187f6128d2565b90506000815114156118955781925050506118d8565b6000825111156118ca5780826040516020016118b29291906146a6565b604051602081830303815290604052925050506118d8565b6118d3846128e9565b925050505b919050565b60006011846040516118ef919061468f565b90815260200160405180910390209050806040518060400160405280858152602001848152509080600181540180825580915050600190039060005260206000209060020201600090919091909150600082015181600001908051906020019061195a929190613086565b506020820151816001019080519060200190611977929190613086565b5050508060118560405161198b919061468f565b90815260200160405180910390209080546119a792919061310c565b507fd5c19fc9dc85cfc871c6518df5171b1700cd52654bb810e4fdb2daa01013933f8484846040516119db939291906146ca565b60405180910390a150505050565b6000600560008473ffffffffffffffffffffffffffffffffffffffff1673ffffffffffffffffffffffffffffffffffffffff16815260200190815260200160002060008373ffffffffffffffffffffffffffffffffffffffff1673ffffffffffffffffffffffffffffffffffffffff16815260200190815260200160002060009054906101000a900460ff16905092915050565b611a8561137a565b611a8e57600080fd5b600073ffffffffffffffffffffffffffffffffffffffff168173ffffffffffffffffffffffffffffffffffffffff161415611afe576040517f08c379a0000000000000000000000000000000000000000000000000000000008152600401611af590614788565b60405180910390fd5b611b0781612951565b50565b60606000611b1860076121f1565b67ffffffffffffffff811115611b3157611b306135d7565b5b604051908082528060200260200182016040528015611b6457816020015b6060815260200190600190039081611b4f5790505b50905060005b611b7460076121f1565b811015611c4857600d60008281526020019081526020016000208054611b9990613eaf565b80601f0160208091040260200160405190810160405280929190818152602001828054611bc590613eaf565b8015611c125780601f10611be757610100808354040283529160200191611c12565b820191906000526020600020905b815481529060010190602001808311611bf557829003601f168201915b5050505050828281518110611c2a57611c296147a8565b5b60200260200101819052508080611c4090614806565b915050611b6a565b508091505090565b611ce88282604051602401611c6692919061484f565b6040516020818303038152906040527f319af333000000000000000000000000000000000000000000000000000000007bffffffffffffffffffffffffffffffffffffffffffffffffffffffff19166020820180517bffffffffffffffffffffffffffffffffffffffffffffffffffffffff8381831617835250505050612a17565b5050565b60007f01ffc9a7000000000000000000000000000000000000000000000000000000007bffffffffffffffffffffffffffffffffffffffffffffffffffffffff1916827bffffffffffffffffffffffffffffffffffffffffffffffffffffffff1916149050919050565b611d5f81612a3c565b611d9e576040517f08c379a0000000000000000000000000000000000000000000000000000000008152600401611d95906145dd565b60405180910390fd5b50565b600033905090565b816004600083815260200190815260200160002060006101000a81548173ffffffffffffffffffffffffffffffffffffffff021916908373ffffffffffffffffffffffffffffffffffffffff160217905550808273ffffffffffffffffffffffffffffffffffffffff16611e1c83611074565b73ffffffffffffffffffffffffffffffffffffffff167f8c5be1e5ebec7d5bd14f71427d1e84f3dd0314c0f7b2291e5b200ac8c7c3b92560405160405180910390a45050565b600080611e6e83611074565b90508073ffffffffffffffffffffffffffffffffffffffff168473ffffffffffffffffffffffffffffffffffffffff161480611eb05750611eaf81856119e9565b5b80611eee57508373ffffffffffffffffffffffffffffffffffffffff16611ed6846107bf565b73ffffffffffffffffffffffffffffffffffffffff16145b91505092915050565b8273ffffffffffffffffffffffffffffffffffffffff16611f1782611074565b73ffffffffffffffffffffffffffffffffffffffff1614611f6d576040517f08c379a0000000000000000000000000000000000000000000000000000000008152600401611f64906148f1565b60405180910390fd5b600073ffffffffffffffffffffffffffffffffffffffff168273ffffffffffffffffffffffffffffffffffffffff161415611fdd576040517f08c379a0000000000000000000000000000000000000000000000000000000008152600401611fd490614983565b60405180910390fd5b611fea8383836001612a7d565b8273ffffffffffffffffffffffffffffffffffffffff1661200a82611074565b73ffffffffffffffffffffffffffffffffffffffff1614612060576040517f08c379a0000000000000000000000000000000000000000000000000000000008152600401612057906148f1565b60405180910390fd5b6004600082815260200190815260200160002060006101000a81549073ffffffffffffffffffffffffffffffffffffffff02191690556001600360008573ffffffffffffffffffffffffffffffffffffffff1673ffffffffffffffffffffffffffffffffffffffff168152602001908152602001600020600082825403925050819055506001600360008473ffffffffffffffffffffffffffffffffffffffff1673ffffffffffffffffffffffffffffffffffffffff16815260200190815260200160002060008282540192505081905550816002600083815260200190815260200160002060006101000a81548173ffffffffffffffffffffffffffffffffffffffff021916908373ffffffffffffffffffffffffffffffffffffffff160217905550808273ffffffffffffffffffffffffffffffffffffffff168473ffffffffffffffffffffffffffffffffffffffff167fddf252ad1be2c89b69c2b068fc378daa952ba7f163c4a11628f55a4df523b3ef60405160405180910390a46121ec8383836001612a83565b505050565b600081600001549050919050565b60008060008084519050600092505b808210156123a957600085838151811061222b5761222a6147a8565b5b602001015160f81c60f81b9050608060f81b817effffffffffffffffffffffffffffffffffffffffffffffffffffffffffffff1916101561227a5760018361227391906149a3565b9250612395565b60e060f81b817effffffffffffffffffffffffffffffffffffffffffffffffffffffffffffff191610156122bc576002836122b591906149a3565b9250612394565b60f060f81b817effffffffffffffffffffffffffffffffffffffffffffffffffffffffffffff191610156122fe576003836122f791906149a3565b9250612393565b60f8801b817effffffffffffffffffffffffffffffffffffffffffffffffffffffffffffff1916101561233f5760048361233891906149a3565b9250612392565b60fc60f81b817effffffffffffffffffffffffffffffffffffffffffffffffffffffffffffff191610156123815760058361237a91906149a3565b9250612391565b60068361238e91906149a3565b92505b5b5b5b5b5082806123a190614806565b93505061220e565b829350505050919050565b6060600060016123c384612a89565b01905060008167ffffffffffffffff8111156123e2576123e16135d7565b5b6040519080825280601f01601f1916602001820160405280156124145781602001600182028036833780820191505090505b509050600082602001820190505b600115612481578080600190039150507f3031323334353637383961626364656600000000000000000000000000000000600a86061a8153600a858161246b5761246a6149f9565b5b049450600085141561247c57612481565b612422565b819350505050919050565b606060008251905060008114156124b5576040518060200160405280600081525091505061261f565b600060036002836124c691906149a3565b6124d09190614a28565b60046124dc9190614a59565b905060006020826124ed91906149a3565b67ffffffffffffffff811115612506576125056135d7565b5b6040519080825280601f01601f1916602001820160405280156125385781602001600182028036833780820191505090505b5090506000604051806060016040528060408152602001614dff604091399050600181016020830160005b868110156125dc5760038101905062ffffff818a015116603f8160121c168401518060081b905060ff603f83600c1c1686015116810190508060081b905060ff603f8360061c1686015116810190508060081b905060ff603f831686015116810190508060e01b90508084526004840193505050612563565b5060038606600181146125f6576002811461260657612611565b613d3d60f01b6002830352612611565b603d60f81b60018303525b508484525050819450505050505b919050565b61263e828260405180602001604052806000815250612bdc565b5050565b61264b82612a3c565b61268a576040517f08c379a000000000000000000000000000000000000000000000000000000000815260040161268190614b25565b60405180910390fd5b806006600084815260200190815260200160002090805190602001906126b1929190613086565b505050565b6001816000016000828254019250508190555050565b60006002600083815260200190815260200160002060009054906101000a900473ffffffffffffffffffffffffffffffffffffffff169050919050565b8173ffffffffffffffffffffffffffffffffffffffff168373ffffffffffffffffffffffffffffffffffffffff161415612778576040517f08c379a000000000000000000000000000000000000000000000000000000000815260040161276f90614b91565b60405180910390fd5b80600560008573ffffffffffffffffffffffffffffffffffffffff1673ffffffffffffffffffffffffffffffffffffffff16815260200190815260200160002060008473ffffffffffffffffffffffffffffffffffffffff1673ffffffffffffffffffffffffffffffffffffffff16815260200190815260200160002060006101000a81548160ff0219169083151502179055508173ffffffffffffffffffffffffffffffffffffffff168373ffffffffffffffffffffffffffffffffffffffff167f17307eab39ab6107e8899845ad3d59bd9653f200f220920489ca2b5937696c31836040516128699190613379565b60405180910390a3505050565b612881848484611ef7565b61288d84848484612c37565b6128cc576040517f08c379a00000000000000000000000000000000000000000000000000000000081526004016128c390614c23565b60405180910390fd5b50505050565b606060405180602001604052806000815250905090565b60606128f482611d56565b60006128fe6128d2565b9050600081511161291e5760405180602001604052806000815250612949565b80612928846123b4565b6040516020016129399291906146a6565b6040516020818303038152906040525b915050919050565b6000600a60009054906101000a900473ffffffffffffffffffffffffffffffffffffffff16905081600a60006101000a81548173ffffffffffffffffffffffffffffffffffffffff021916908373ffffffffffffffffffffffffffffffffffffffff1602179055508173ffffffffffffffffffffffffffffffffffffffff168173ffffffffffffffffffffffffffffffffffffffff167f8be0079c531659141344cd1fd0a4f28419497f9722a3daafe3b4186f6b6457e060405160405180910390a35050565b60006a636f6e736f6c652e6c6f6790508151602083016000808383865afa5050505050565b60008073ffffffffffffffffffffffffffffffffffffffff16612a5e836126cc565b73ffffffffffffffffffffffffffffffffffffffff1614159050919050565b50505050565b50505050565b600080600090507a184f03e93ff9f4daa797ed6e38ed64bf6a1f0100000000000000008310612ae7577a184f03e93ff9f4daa797ed6e38ed64bf6a1f0100000000000000008381612add57612adc6149f9565b5b0492506040810190505b6d04ee2d6d415b85acef81000000008310612b24576d04ee2d6d415b85acef81000000008381612b1a57612b196149f9565b5b0492506020810190505b662386f26fc100008310612b5357662386f26fc100008381612b4957612b486149f9565b5b0492506010810190505b6305f5e1008310612b7c576305f5e1008381612b7257612b716149f9565b5b0492506008810190505b6127108310612ba1576127108381612b9757612b966149f9565b5b0492506004810190505b60648310612bc45760648381612bba57612bb96149f9565b5b0492506002810190505b600a8310612bd3576001810190505b80915050919050565b612be68383612dbf565b612bf36000848484612c37565b612c32576040517f08c379a0000000000000000000000000000000000000000000000000000000008152600401612c2990614c23565b60405180910390fd5b505050565b6000612c588473ffffffffffffffffffffffffffffffffffffffff16612fdd565b15612db2578373ffffffffffffffffffffffffffffffffffffffff1663150b7a02612c81611da1565b8786866040518563ffffffff1660e01b8152600401612ca39493929190614c98565b6020604051808303816000875af1925050508015612cdf57506040513d601f19601f82011682018060405250810190612cdc9190614cf9565b60015b612d62573d8060008114612d0f576040519150601f19603f3d011682016040523d82523d6000602084013e612d14565b606091505b50600081511415612d5a576040517f08c379a0000000000000000000000000000000000000000000000000000000008152600401612d5190614c23565b60405180910390fd5b805181602001fd5b63150b7a0260e01b7bffffffffffffffffffffffffffffffffffffffffffffffffffffffff1916817bffffffffffffffffffffffffffffffffffffffffffffffffffffffff191614915050612db7565b600190505b949350505050565b600073ffffffffffffffffffffffffffffffffffffffff168273ffffffffffffffffffffffffffffffffffffffff161415612e2f576040517f08c379a0000000000000000000000000000000000000000000000000000000008152600401612e2690614d72565b60405180910390fd5b612e3881612a3c565b15612e78576040517f08c379a0000000000000000000000000000000000000000000000000000000008152600401612e6f90614dde565b60405180910390fd5b612e86600083836001612a7d565b612e8f81612a3c565b15612ecf576040517f08c379a0000000000000000000000000000000000000000000000000000000008152600401612ec690614dde565b60405180910390fd5b6001600360008473ffffffffffffffffffffffffffffffffffffffff1673ffffffffffffffffffffffffffffffffffffffff16815260200190815260200160002060008282540192505081905550816002600083815260200190815260200160002060006101000a81548173ffffffffffffffffffffffffffffffffffffffff021916908373ffffffffffffffffffffffffffffffffffffffff160217905550808273ffffffffffffffffffffffffffffffffffffffff16600073ffffffffffffffffffffffffffffffffffffffff167fddf252ad1be2c89b69c2b068fc378daa952ba7f163c4a11628f55a4df523b3ef60405160405180910390a4612fd9600083836001612a83565b5050565b6000808273ffffffffffffffffffffffffffffffffffffffff163b119050919050565b82805461300c90613eaf565b90600052602060002090601f01602090048101928261302e5760008555613075565b82601f1061304757803560ff1916838001178555613075565b82800160010185558215613075579182015b82811115613074578235825591602001919060010190613059565b5b50905061308291906131a4565b5090565b82805461309290613eaf565b90600052602060002090601f0160209004810192826130b457600085556130fb565b82601f106130cd57805160ff19168380011785556130fb565b828001600101855582156130fb579182015b828111156130fa5782518255916020019190600101906130df565b5b50905061310891906131a4565b5090565b8280548282559060005260206000209060020281019282156131935760005260206000209160020282015b82811115613192578282600082018160000190805461315590613eaf565b6131609291906131c1565b50600182018160010190805461317590613eaf565b6131809291906131c1565b50505091600201919060020190613137565b5b5090506131a0919061324e565b5090565b5b808211156131bd5760008160009055506001016131a5565b5090565b8280546131cd90613eaf565b90600052602060002090601f0160209004810192826131ef576000855561323d565b82601f10613200578054855561323d565b8280016001018555821561323d57600052602060002091601f016020900482015b8281111561323c578254825591600101919060010190613221565b5b50905061324a91906131a4565b5090565b5b8082111561328157600080820160006132689190613285565b6001820160006132789190613285565b5060020161324f565b5090565b50805461329190613eaf565b6000825580601f106132a357506132c2565b601f0160209004906000526020600020908101906132c191906131a4565b5b50565b6000604051905090565b600080fd5b600080fd5b60007fffffffff0000000000000000000000000000000000000000000000000000000082169050919050565b61330e816132d9565b811461331957600080fd5b50565b60008135905061332b81613305565b92915050565b600060208284031215613347576133466132cf565b5b60006133558482850161331c565b91505092915050565b60008115159050919050565b6133738161335e565b82525050565b600060208201905061338e600083018461336a565b92915050565b600081519050919050565b600082825260208201905092915050565b60005b838110156133ce5780820151818401526020810190506133b3565b838111156133dd576000848401525b50505050565b6000601f19601f8301169050919050565b60006133ff82613394565b613409818561339f565b93506134198185602086016133b0565b613422816133e3565b840191505092915050565b6000602082019050818103600083015261344781846133f4565b905092915050565b6000819050919050565b6134628161344f565b811461346d57600080fd5b50565b60008135905061347f81613459565b92915050565b60006020828403121561349b5761349a6132cf565b5b60006134a984828501613470565b91505092915050565b600073ffffffffffffffffffffffffffffffffffffffff82169050919050565b60006134dd826134b2565b9050919050565b6134ed816134d2565b82525050565b600060208201905061350860008301846134e4565b92915050565b613517816134d2565b811461352257600080fd5b50565b6000813590506135348161350e565b92915050565b60008060408385031215613551576135506132cf565b5b600061355f85828601613525565b925050602061357085828601613470565b9150509250929050565b600080600060608486031215613593576135926132cf565b5b60006135a186828701613525565b93505060206135b286828701613525565b92505060406135c386828701613470565b9150509250925092565b600080fd5b600080fd5b7f4e487b7100000000000000000000000000000000000000000000000000000000600052604160045260246000fd5b61360f826133e3565b810181811067ffffffffffffffff8211171561362e5761362d6135d7565b5b80604052505050565b60006136416132c5565b905061364d8282613606565b919050565b600067ffffffffffffffff82111561366d5761366c6135d7565b5b613676826133e3565b9050602081019050919050565b82818337600083830152505050565b60006136a56136a084613652565b613637565b9050828152602081018484840111156136c1576136c06135d2565b5b6136cc848285613683565b509392505050565b600082601f8301126136e9576136e86135cd565b5b81356136f9848260208601613692565b91505092915050565b600060208284031215613718576137176132cf565b5b600082013567ffffffffffffffff811115613736576137356132d4565b5b613742848285016136d4565b91505092915050565b600060208284031215613761576137606132cf565b5b600061376f84828501613525565b91505092915050565b600080fd5b600080fd5b60008083601f840112613798576137976135cd565b5b8235905067ffffffffffffffff8111156137b5576137b4613778565b5b6020830191508360018202830111156137d1576137d061377d565b5b9250929050565b6000806000806000606086880312156137f4576137f36132cf565b5b600086013567ffffffffffffffff811115613812576138116132d4565b5b61381e88828901613782565b9550955050602086013567ffffffffffffffff811115613841576138406132d4565b5b61384d88828901613782565b9350935050604061386088828901613525565b9150509295509295909350565b6138768161344f565b82525050565b6000602082019050613891600083018461386d565b92915050565b600081519050919050565b600082825260208201905092915050565b6000819050602082019050919050565b600082825260208201905092915050565b60006138df82613394565b6138e981856138c3565b93506138f98185602086016133b0565b613902816133e3565b840191505092915050565b6000604083016000830151848203600086015261392a82826138d4565b9150506020830151848203602086015261394482826138d4565b9150508091505092915050565b600061395d838361390d565b905092915050565b6000602082019050919050565b600061397d82613897565b61398781856138a2565b935083602082028501613999856138b3565b8060005b858110156139d557848403895281516139b68582613951565b94506139c183613965565b925060208a0199505060018101905061399d565b50829750879550505050505092915050565b60006020820190508181036000830152613a018184613972565b905092915050565b6000613a14826134b2565b9050919050565b613a2481613a09565b82525050565b6000602082019050613a3f6000830184613a1b565b92915050565b60008060208385031215613a5c57613a5b6132cf565b5b600083013567ffffffffffffffff811115613a7a57613a796132d4565b5b613a8685828601613782565b92509250509250929050565b613a9b8161335e565b8114613aa657600080fd5b50565b600081359050613ab881613a92565b92915050565b60008060408385031215613ad557613ad46132cf565b5b6000613ae385828601613525565b9250506020613af485828601613aa9565b9150509250929050565b60008060408385031215613b1557613b146132cf565b5b600083013567ffffffffffffffff811115613b3357613b326132d4565b5b613b3f858286016136d4565b9250506020613b5085828601613470565b9150509250929050565b60006040820190508181036000830152613b7481856133f4565b90508181036020830152613b8881846133f4565b90509392505050565b600067ffffffffffffffff821115613bac57613bab6135d7565b5b613bb5826133e3565b9050602081019050919050565b6000613bd5613bd084613b91565b613637565b905082815260208101848484011115613bf157613bf06135d2565b5b613bfc848285613683565b509392505050565b600082601f830112613c1957613c186135cd565b5b8135613c29848260208601613bc2565b91505092915050565b60008060008060808587031215613c4c57613c4b6132cf565b5b6000613c5a87828801613525565b9450506020613c6b87828801613525565b9350506040613c7c87828801613470565b925050606085013567ffffffffffffffff811115613c9d57613c9c6132d4565b5b613ca987828801613c04565b91505092959194509250565b600080600060608486031215613cce57613ccd6132cf565b5b600084013567ffffffffffffffff811115613cec57613ceb6132d4565b5b613cf8868287016136d4565b935050602084013567ffffffffffffffff811115613d1957613d186132d4565b5b613d25868287016136d4565b925050604084013567ffffffffffffffff811115613d4657613d456132d4565b5b613d52868287016136d4565b9150509250925092565b60008060408385031215613d7357613d726132cf565b5b6000613d8185828601613525565b9250506020613d9285828601613525565b9150509250929050565b600081519050919050565b600082825260208201905092915050565b6000819050602082019050919050565b6000613dd483836138d4565b905092915050565b6000602082019050919050565b6000613df482613d9c565b613dfe8185613da7565b935083602082028501613e1085613db8565b8060005b85811015613e4c5784840389528151613e2d8582613dc8565b9450613e3883613ddc565b925060208a01995050600181019050613e14565b50829750879550505050505092915050565b60006020820190508181036000830152613e788184613de9565b905092915050565b7f4e487b7100000000000000000000000000000000000000000000000000000000600052602260045260246000fd5b60006002820490506001821680613ec757607f821691505b60208210811415613edb57613eda613e80565b5b50919050565b7f4552433732313a20617070726f76616c20746f2063757272656e74206f776e6560008201527f7200000000000000000000000000000000000000000000000000000000000000602082015250565b6000613f3d60218361339f565b9150613f4882613ee1565b604082019050919050565b60006020820190508181036000830152613f6c81613f30565b9050919050565b7f4552433732313a20617070726f76652063616c6c6572206973206e6f7420746f60008201527f6b656e206f776e6572206f7220617070726f76656420666f7220616c6c000000602082015250565b6000613fcf603d8361339f565b9150613fda82613f73565b604082019050919050565b60006020820190508181036000830152613ffe81613fc2565b9050919050565b7f4552433732313a2063616c6c6572206973206e6f7420746f6b656e206f776e6560008201527f72206f7220617070726f76656400000000000000000000000000000000000000602082015250565b6000614061602d8361339f565b915061406c82614005565b604082019050919050565b6000602082019050818103600083015261409081614054565b9050919050565b7f696e76616c696420646f6d61696e206e616d6520636865636b206c656e677468600082015250565b60006140cd60208361339f565b91506140d882614097565b602082019050919050565b600060208201905081810360008301526140fc816140c0565b9050919050565b7f54686973206164647265737320697320616c726561647920726567697374657260008201527f6564212100000000000000000000000000000000000000000000000000000000602082015250565b600061415f60248361339f565b915061416a82614103565b604082019050919050565b6000602082019050818103600083015261418e81614152565b9050919050565b600081905092915050565b60006141ac8385614195565b93506141b9838584613683565b82840190509392505050565b60006141d28284866141a0565b91508190509392505050565b60008190508160005260206000209050919050565b6000815461420081613eaf565b61420a8186614195565b94506001821660008114614225576001811461423657614269565b60ff19831686528186019350614269565b61423f856141de565b60005b8381101561426157815481890152600182019150602081019050614242565b838801955050505b50505092915050565b600061427d82613394565b6142878185614195565b93506142978185602086016133b0565b80840191505092915050565b60006142af82866141f3565b91506142bb8285614272565b91506142c782846141f3565b9150819050949350505050565b7f7b226e616d65223a202200000000000000000000000000000000000000000000600082015250565b600061430a600a83614195565b9150614315826142d4565b600a82019050919050565b7f222c20226465736372697074696f6e223a20224120646f6d61696e206f6e207460008201527f6865204e696e6a61206e616d652073657276696365222c2022696d616765223a60208201527f2022646174613a696d6167652f7376672b786d6c3b6261736536342c00000000604082015250565b60006143a2605c83614195565b91506143ad82614320565b605c82019050919050565b7f222c226c656e677468223a220000000000000000000000000000000000000000600082015250565b60006143ee600c83614195565b91506143f9826143b8565b600c82019050919050565b7f227d000000000000000000000000000000000000000000000000000000000000600082015250565b600061443a600283614195565b915061444582614404565b600282019050919050565b600061445b826142fd565b91506144678286614272565b915061447282614395565b915061447e8285614272565b9150614489826143e1565b91506144958284614272565b91506144a08261442d565b9150819050949350505050565b7f646174613a6170706c69636174696f6e2f6a736f6e3b6261736536342c000000600082015250565b60006144e3601d83614195565b91506144ee826144ad565b601d82019050919050565b6000614504826144d6565b91506145108284614272565b915081905092915050565b6000614527838561339f565b9350614534838584613683565b61453d836133e3565b840190509392505050565b600060608201905061455d60008301886134e4565b818103602083015261457081868861451b565b9050818103604083015261458581848661451b565b90509695505050505050565b7f4552433732313a20696e76616c696420746f6b656e2049440000000000000000600082015250565b60006145c760188361339f565b91506145d282614591565b602082019050919050565b600060208201905081810360008301526145f6816145ba565b9050919050565b7f4552433732313a2061646472657373207a65726f206973206e6f74206120766160008201527f6c6964206f776e65720000000000000000000000000000000000000000000000602082015250565b600061465960298361339f565b9150614664826145fd565b604082019050919050565b600060208201905081810360008301526146888161464c565b9050919050565b600061469b8284614272565b915081905092915050565b60006146b28285614272565b91506146be8284614272565b91508190509392505050565b600060608201905081810360008301526146e481866133f4565b905081810360208301526146f881856133f4565b9050818103604083015261470c81846133f4565b9050949350505050565b7f4f776e61626c653a206e6577206f776e657220697320746865207a65726f206160008201527f6464726573730000000000000000000000000000000000000000000000000000602082015250565b600061477260268361339f565b915061477d82614716565b604082019050919050565b600060208201905081810360008301526147a181614765565b9050919050565b7f4e487b7100000000000000000000000000000000000000000000000000000000600052603260045260246000fd5b7f4e487b7100000000000000000000000000000000000000000000000000000000600052601160045260246000fd5b60006148118261344f565b91507fffffffffffffffffffffffffffffffffffffffffffffffffffffffffffffffff821415614844576148436147d7565b5b600182019050919050565b6000604082019050818103600083015261486981856133f4565b905061487860208301846134e4565b9392505050565b7f4552433732313a207472616e736665722066726f6d20696e636f72726563742060008201527f6f776e6572000000000000000000000000000000000000000000000000000000602082015250565b60006148db60258361339f565b91506148e68261487f565b604082019050919050565b6000602082019050818103600083015261490a816148ce565b9050919050565b7f4552433732313a207472616e7366657220746f20746865207a65726f2061646460008201527f7265737300000000000000000000000000000000000000000000000000000000602082015250565b600061496d60248361339f565b915061497882614911565b604082019050919050565b6000602082019050818103600083015261499c81614960565b9050919050565b60006149ae8261344f565b91506149b98361344f565b9250827fffffffffffffffffffffffffffffffffffffffffffffffffffffffffffffffff038211156149ee576149ed6147d7565b5b828201905092915050565b7f4e487b7100000000000000000000000000000000000000000000000000000000600052601260045260246000fd5b6000614a338261344f565b9150614a3e8361344f565b925082614a4e57614a4d6149f9565b5b828204905092915050565b6000614a648261344f565b9150614a6f8361344f565b9250817fffffffffffffffffffffffffffffffffffffffffffffffffffffffffffffffff0483118215151615614aa857614aa76147d7565b5b828202905092915050565b7f45524337323155524953746f726167653a2055524920736574206f66206e6f6e60008201527f6578697374656e7420746f6b656e000000000000000000000000000000000000602082015250565b6000614b0f602e8361339f565b9150614b1a82614ab3565b604082019050919050565b60006020820190508181036000830152614b3e81614b02565b9050919050565b7f4552433732313a20617070726f766520746f2063616c6c657200000000000000600082015250565b6000614b7b60198361339f565b9150614b8682614b45565b602082019050919050565b60006020820190508181036000830152614baa81614b6e565b9050919050565b7f4552433732313a207472616e7366657220746f206e6f6e20455243373231526560008201527f63656976657220696d706c656d656e7465720000000000000000000000000000602082015250565b6000614c0d60328361339f565b9150614c1882614bb1565b604082019050919050565b60006020820190508181036000830152614c3c81614c00565b9050919050565b600081519050919050565b600082825260208201905092915050565b6000614c6a82614c43565b614c748185614c4e565b9350614c848185602086016133b0565b614c8d816133e3565b840191505092915050565b6000608082019050614cad60008301876134e4565b614cba60208301866134e4565b614cc7604083018561386d565b8181036060830152614cd98184614c5f565b905095945050505050565b600081519050614cf381613305565b92915050565b600060208284031215614d0f57614d0e6132cf565b5b6000614d1d84828501614ce4565b91505092915050565b7f4552433732313a206d696e7420746f20746865207a65726f2061646472657373600082015250565b6000614d5c60208361339f565b9150614d6782614d26565b602082019050919050565b60006020820190508181036000830152614d8b81614d4f565b9050919050565b7f4552433732313a20746f6b656e20616c7265616479206d696e74656400000000600082015250565b6000614dc8601c8361339f565b9150614dd382614d92565b602082019050919050565b60006020820190508181036000830152614df781614dbb565b905091905056fe4142434445464748494a4b4c4d4e4f505152535455565758595a6162636465666768696a6b6c6d6e6f707172737475767778797a303132333435363738392b2fa26469706673582212209aa414063e10f14e132dff401ace9e3d04eefb89c582ebb68dca546c00499c8e64736f6c634300080a00333c73766720786d6c6e733d22687474703a2f2f7777772e77332e6f72672f323030302f737667222077696474683d2232373022206865696768743d22323730222066696c6c3d226e6f6e65223e3c706174682066696c6c3d2275726c282342292220643d224d302030683237307632373048307a222f3e3c646566733e3c66696c7465722069643d22412220636f6c6f722d696e746572706f6c6174696f6e2d66696c746572733d2273524742222066696c746572556e6974733d227573657253706163654f6e55736522206865696768743d22323730222077696474683d22323730223e3c666544726f70536861646f772064783d2230222064793d22312220737464446576696174696f6e3d22322220666c6f6f642d6f7061636974793d222e323235222077696474683d223230302522206865696768743d2232303025222f3e3c2f66696c7465723e3c2f646566733e3c7061746820643d224d37322e3836332034322e393439632d2e3636382d2e3338372d312e3432362d2e35392d322e3139372d2e3539732d312e3532392e3230342d322e3139372e35396c2d31302e30383120362e3033322d362e383520332e3933342d31302e30383120362e303332632d2e3636382e3338372d312e3432362e35392d322e3139372e3539732d312e3532392d2e3230342d322e3139372d2e35396c2d382e3031332d342e37323161342e353220342e35322030203020312d312e3538392d312e363136632d2e3338342d2e3636352d2e3539342d312e3431382d2e3630382d322e313837762d392e3331632d2e3031332d2e3737352e3138352d312e3533382e3537322d322e32303861342e323520342e323520302030203120312e3632352d312e3539356c372e3838342d342e3539632e3636382d2e33383720312e3432362d2e353920322e3139372d2e353973312e3532392e32303420322e3139372e35396c372e38383420342e353961342e353220342e353220302030203120312e35383920312e363136632e3338342e3636352e35393420312e3431382e36303820322e31383776362e3033326c362e38352d342e303635762d362e303332632e3031332d2e3737352d2e3138352d312e3533382d2e3537322d322e32303861342e323520342e32352030203020302d312e3632352d312e3539354c34312e3435362032342e3539632d2e3636382d2e3338372d312e3432362d2e35392d322e3139372d2e3539732d312e3532392e3230342d322e3139372e35396c2d31342e38363420382e36353561342e323520342e32352030203020302d312e36323520312e353935632d2e3338372e36372d2e35383520312e3433342d2e35373220322e3230387631372e343431632d2e3031332e3737352e31383520312e3533382e35373220322e32303861342e323520342e323520302030203020312e36323520312e3539356c31342e38363420382e363535632e3636382e33383720312e3432362e353920322e3139372e353973312e3532392d2e32303420322e3139372d2e35396c31302e3038312d352e39303120362e38352d342e3036352031302e3038312d352e393031632e3636382d2e33383720312e3432362d2e353920322e3139372d2e353973312e3532392e32303420322e3139372e35396c372e38383420342e353961342e353220342e353220302030203120312e35383920312e363136632e3338342e3636352e35393420312e3431382e36303820322e31383776392e333131632e3031332e3737352d2e31383520312e3533382d2e35373220322e32303861342e323520342e32352030203020312d312e36323520312e3539356c2d372e38383420342e373231632d2e3636382e3338372d312e3432362e35392d322e3139372e3539732d312e3532392d2e3230342d322e3139372d2e35396c2d372e3838342d342e353961342e353220342e35322030203020312d312e3538392d312e363136632d2e3338352d2e3636352d2e3539342d312e3431382d2e3630382d322e313837762d362e3033326c2d362e383520342e30363576362e303332632d2e3031332e3737352e31383520312e3533382e35373220322e32303861342e323520342e323520302030203020312e36323520312e3539356c31342e38363420382e363535632e3636382e33383720312e3432362e353920322e3139372e353973312e3532392d2e32303420322e3139372d2e35396c31342e3836342d382e363535632e3635372d2e33393420312e3230342d2e393520312e3538392d312e363136732e3539342d312e3431382e3630392d322e3138375635352e353338632e3031332d2e3737352d2e3138352d312e3533382d2e3537322d322e32303861342e323520342e32352030203020302d312e3632352d312e3539356c2d31342e3939332d382e3738367a222066696c6c3d2223666666222f3e3c646566733e3c6c696e6561724772616469656e742069643d2242222078313d2230222079313d2230222078323d22323730222079323d2232373022206772616469656e74556e6974733d227573657253706163654f6e557365223e3c73746f702073746f702d636f6c6f723d2223636235656565222f3e3c73746f70206f66667365743d2231222073746f702d636f6c6f723d2223306364376534222073746f702d6f7061636974793d222e3939222f3e3c2f6c696e6561724772616469656e743e3c2f646566733e3c7465787420783d2233322e352220793d223233312220666f6e742d73697a653d223237222066696c6c3d2223666666222066696c7465723d2275726c282341292220666f6e742d66616d696c793d22506c7573204a616b617274612053616e732c44656a6156752053616e732c4e6f746f20436f6c6f7220456d6f6a692c4170706c6520436f6c6f7220456d6f6a692c73616e732d73657269662220666f6e742d7765696768743d22626f6c64223e",
  "immutableReferences": {},
  "source": "//SPDX-License-Identifier: Unlicense\npragma solidity >=0.8.0;\n\nimport {StringUtils} from \"./../lib/StringUtils.sol\";\nimport {Base64} from \"./../lib/Base64.sol\";\nimport \"@openzeppelin/contracts/token/ERC721/extensions/ERC721URIStorage.sol\";\nimport \"@openzeppelin/contracts/utils/Counters.sol\";\nimport \"truffle/console.sol\";\nimport \"./../interface/IDNS.sol\";\n\n/**\n * DNS(DID Name Servivce) Contract\n */\ncontract DNS is ERC721URIStorage, IDNS {\n    // tokenID\n    using Counters for Counters.Counter;\n    Counters.Counter private _tokenIds;\n\n    // Image data\n    string svgPartOne =\n        '<svg xmlns=\"http://www.w3.org/2000/svg\" width=\"270\" height=\"270\" fill=\"none\"><path fill=\"url(#B)\" d=\"M0 0h270v270H0z\"/><defs><filter id=\"A\" color-interpolation-filters=\"sRGB\" filterUnits=\"userSpaceOnUse\" height=\"270\" width=\"270\"><feDropShadow dx=\"0\" dy=\"1\" stdDeviation=\"2\" flood-opacity=\".225\" width=\"200%\" height=\"200%\"/></filter></defs><path d=\"M72.863 42.949c-.668-.387-1.426-.59-2.197-.59s-1.529.204-2.197.59l-10.081 6.032-6.85 3.934-10.081 6.032c-.668.387-1.426.59-2.197.59s-1.529-.204-2.197-.59l-8.013-4.721a4.52 4.52 0 0 1-1.589-1.616c-.384-.665-.594-1.418-.608-2.187v-9.31c-.013-.775.185-1.538.572-2.208a4.25 4.25 0 0 1 1.625-1.595l7.884-4.59c.668-.387 1.426-.59 2.197-.59s1.529.204 2.197.59l7.884 4.59a4.52 4.52 0 0 1 1.589 1.616c.384.665.594 1.418.608 2.187v6.032l6.85-4.065v-6.032c.013-.775-.185-1.538-.572-2.208a4.25 4.25 0 0 0-1.625-1.595L41.456 24.59c-.668-.387-1.426-.59-2.197-.59s-1.529.204-2.197.59l-14.864 8.655a4.25 4.25 0 0 0-1.625 1.595c-.387.67-.585 1.434-.572 2.208v17.441c-.013.775.185 1.538.572 2.208a4.25 4.25 0 0 0 1.625 1.595l14.864 8.655c.668.387 1.426.59 2.197.59s1.529-.204 2.197-.59l10.081-5.901 6.85-4.065 10.081-5.901c.668-.387 1.426-.59 2.197-.59s1.529.204 2.197.59l7.884 4.59a4.52 4.52 0 0 1 1.589 1.616c.384.665.594 1.418.608 2.187v9.311c.013.775-.185 1.538-.572 2.208a4.25 4.25 0 0 1-1.625 1.595l-7.884 4.721c-.668.387-1.426.59-2.197.59s-1.529-.204-2.197-.59l-7.884-4.59a4.52 4.52 0 0 1-1.589-1.616c-.385-.665-.594-1.418-.608-2.187v-6.032l-6.85 4.065v6.032c-.013.775.185 1.538.572 2.208a4.25 4.25 0 0 0 1.625 1.595l14.864 8.655c.668.387 1.426.59 2.197.59s1.529-.204 2.197-.59l14.864-8.655c.657-.394 1.204-.95 1.589-1.616s.594-1.418.609-2.187V55.538c.013-.775-.185-1.538-.572-2.208a4.25 4.25 0 0 0-1.625-1.595l-14.993-8.786z\" fill=\"#fff\"/><defs><linearGradient id=\"B\" x1=\"0\" y1=\"0\" x2=\"270\" y2=\"270\" gradientUnits=\"userSpaceOnUse\"><stop stop-color=\"#cb5eee\"/><stop offset=\"1\" stop-color=\"#0cd7e4\" stop-opacity=\".99\"/></linearGradient></defs><text x=\"32.5\" y=\"231\" font-size=\"27\" fill=\"#fff\" filter=\"url(#A)\" font-family=\"Plus Jakarta Sans,DejaVu Sans,Noto Color Emoji,Apple Color Emoji,sans-serif\" font-weight=\"bold\">';\n    string svgPartTwo = \"</text></svg>\";\n\n    // owner address\n    address payable public owner;\n\n    // mapping\n    mapping(string => string) public domains;\n    mapping(string => string) public records;\n    mapping(uint => string) public names;\n    mapping(address => bool) public isRegistered;\n    mapping(address => string) public dids;\n    mapping(string => address) public addrs;\n    mapping(string => VcInfo[]) public vcs;\n\n    // event\n    event Registered(address to, string did, string name);\n    event UpdateVc(string did, string name,string cid);\n    event OwnershipTransferred(\n        address indexed previousOwner,\n        address indexed newOwner\n    );\n\n    modifier onlyOwner() {\n        require(isOwner());\n        _;\n    }\n\n    /**\n     * constuctor\n     */\n    constructor() payable ERC721(\"DID Name Service\", \"DNS\") {\n        // owner address\n        owner = payable(msg.sender);\n\n        console.log(\"owner:\", owner);\n    }\n\n    /**\n     * register\n     * @param name domain\n     * @param did did\n     * @param to address\n     */\n    function register(\n        string calldata name,\n        string calldata did,\n        address to\n    ) public {\n        // check\n        require(valid(name), \"invalid domain name check length\");\n        require(!isRegistered[to], \"This address is already registered!!\");\n\n        // name\n        string memory _name = string(abi.encodePacked(name));\n        // create image data\n        string memory finalSvg = string(\n            abi.encodePacked(svgPartOne, _name, svgPartTwo)\n        );\n        //get token ID\n        uint256 newRecordId = _tokenIds.current();\n        uint256 length = StringUtils.strlen(name);\n        string memory strLen = Strings.toString(length);\n\n        // encode\n        string memory json = Base64.encode(\n            abi.encodePacked(\n                '{\"name\": \"',\n                _name,\n                '\", \"description\": \"A domain on the Ninja name service\", \"image\": \"data:image/svg+xml;base64,',\n                Base64.encode(bytes(finalSvg)),\n                '\",\"length\":\"',\n                strLen,\n                '\"}'\n            )\n        );\n        // generate URI\n        string memory finalTokenUri = string(\n            abi.encodePacked(\"data:application/json;base64,\", json)\n        );\n\n        // register\n        domains[name] = did;\n        records[did] = name;\n        names[newRecordId] = name;\n        dids[to] = did;\n        addrs[did] = to;\n        isRegistered[to] = true;\n\n        // mint NFT\n        _safeMint(to, newRecordId);\n        // token URO\n        _setTokenURI(newRecordId, finalTokenUri);\n\n        _tokenIds.increment();\n        emit Registered(to, did, name);\n    }\n\n    /**\n     * get did method\n     * @param name name\n     * @return did did\n     */\n    function getDidInfo(\n        string calldata name\n    ) public view returns (string memory) {\n        return domains[name];\n    }\n\n\n    /**\n     * check owner\n     */\n    function isOwner() public view returns (bool) {\n        return msg.sender == owner;\n    }\n\n    /**\n     * gell all names\n     */\n    function getAllNames() public view returns (string[] memory) {\n        string[] memory allNames = new string[](_tokenIds.current());\n        for (uint i = 0; i < _tokenIds.current(); i++) {\n            allNames[i] = names[i];\n        }\n        // \n        return allNames;\n    }\n\n    /**\n     * check domain name\n     */\n    function valid(string calldata name) public pure returns (bool) {\n        return StringUtils.strlen(name) >= 3 && StringUtils.strlen(name) <= 30;\n    }\n\n    /**\n     * getVcs function\n     * @param _did DID\n     * @return vcs[_did] Verifiable Credentials\n     */\n    function getVcs(string memory _did) public view returns (VcInfo[] memory) {\n        return vcs[_did];\n    }\n\n    /**\n     * updatVc function\n     * @param _did DID\n     * @param _name VC Name\n     * @param _cid VC's CID\n     */\n    function updateVc(\n        string memory _did,\n        string memory _name,\n        string memory _cid\n    ) public {\n        // get Vcinfo\n        VcInfo[] storage coll = vcs[_did];\n\n        // puch new Vc info\n        coll.push(VcInfo({name: _name, cid: _cid}));\n        // register again\n        vcs[_did] = coll;\n\n        emit UpdateVc(_did, _name, _cid);\n    }\n\n    /**\n     * @dev Transfers ownership of the contract to a new account (`newOwner`).\n     * Can only be called by the current owner.\n     */\n    function transferOwnership(address newOwner) public virtual onlyOwner {\n        require(\n            newOwner != address(0),\n            \"Ownable: new owner is the zero address\"\n        );\n        _transferOwnership(newOwner);\n    }\n\n    /**\n     * @dev Transfers ownership of the contract to a new account (`newOwner`).\n     * Internal function without access restriction.\n     */\n    function _transferOwnership(address newOwner) internal virtual {\n        address oldOwner = owner;\n        owner = payable(newOwner);\n        emit OwnershipTransferred(oldOwner, newOwner);\n    }\n}\n",
  "sourcePath": "/Users/harukikondo/git/TheGraphSample2/packages/backend/contracts/DNS/DNS.sol",
  "compiler": {
    "name": "solc",
    "version": "0.8.10+commit.fc410830.Emscripten.clang"
  },
  "schemaVersion": "3.4.13",
  "updatedAt": "2023-04-10T13:58:07.233Z",
  "devdoc": {
    "kind": "dev",
    "methods": {
      "approve(address,uint256)": {
        "details": "See {IERC721-approve}."
      },
      "balanceOf(address)": {
        "details": "See {IERC721-balanceOf}."
      },
      "getApproved(uint256)": {
        "details": "See {IERC721-getApproved}."
      },
      "getDidInfo(string)": {
        "params": {
          "name": "name"
        },
        "returns": {
          "_0": "did did"
        }
      },
      "getVcs(string)": {
        "params": {
          "_did": "DID"
        },
        "returns": {
          "_0": "vcs[_did] Verifiable Credentials"
        }
      },
      "isApprovedForAll(address,address)": {
        "details": "See {IERC721-isApprovedForAll}."
      },
      "name()": {
        "details": "See {IERC721Metadata-name}."
      },
      "ownerOf(uint256)": {
        "details": "See {IERC721-ownerOf}."
      },
      "register(string,string,address)": {
        "params": {
          "did": "did",
          "name": "domain",
          "to": "address"
        }
      },
      "safeTransferFrom(address,address,uint256)": {
        "details": "See {IERC721-safeTransferFrom}."
      },
      "safeTransferFrom(address,address,uint256,bytes)": {
        "details": "See {IERC721-safeTransferFrom}."
      },
      "setApprovalForAll(address,bool)": {
        "details": "See {IERC721-setApprovalForAll}."
      },
      "supportsInterface(bytes4)": {
        "details": "See {IERC165-supportsInterface}."
      },
      "symbol()": {
        "details": "See {IERC721Metadata-symbol}."
      },
      "tokenURI(uint256)": {
        "details": "See {IERC721Metadata-tokenURI}."
      },
      "transferFrom(address,address,uint256)": {
        "details": "See {IERC721-transferFrom}."
      },
      "transferOwnership(address)": {
        "details": "Transfers ownership of the contract to a new account (`newOwner`). Can only be called by the current owner."
      },
      "updateVc(string,string,string)": {
        "params": {
          "_cid": "VC's CID",
          "_did": "DID",
          "_name": "VC Name"
        }
      }
    },
    "version": 1
  },
  "userdoc": {
    "kind": "user",
    "methods": {
      "constructor": {
        "notice": "constuctor"
      },
      "getAllNames()": {
        "notice": "gell all names"
      },
      "getDidInfo(string)": {
        "notice": "get did method"
      },
      "getVcs(string)": {
        "notice": "getVcs function"
      },
      "isOwner()": {
        "notice": "check owner"
      },
      "register(string,string,address)": {
        "notice": "register"
      },
      "updateVc(string,string,string)": {
        "notice": "updatVc function"
      },
      "valid(string)": {
        "notice": "check domain name"
      }
    },
    "notice": "DNS(DID Name Servivce) Contract",
    "version": 1
  }
}