{
  "contractName": "MyToken",
  "abi": [
    {
      "inputs": [
        {
          "internalType": "string",
          "name": "_name",
          "type": "string"
        },
        {
          "internalType": "string",
          "name": "_symbol",
          "type": "string"
        }
      ],
      "stateMutability": "nonpayable",
      "type": "constructor"
    },
    {
      "anonymous": false,
      "inputs": [
        {
          "indexed": true,
          "internalType": "address",
          "name": "owner",
          "type": "address"
        },
        {
          "indexed": true,
          "internalType": "address",
          "name": "spender",
          "type": "address"
        },
        {
          "indexed": false,
          "internalType": "uint256",
          "name": "value",
          "type": "uint256"
        }
      ],
      "name": "Approval",
      "type": "event"
    },
    {
      "anonymous": false,
      "inputs": [
        {
          "indexed": true,
          "internalType": "address",
          "name": "delegator",
          "type": "address"
        },
        {
          "indexed": true,
          "internalType": "address",
          "name": "fromDelegate",
          "type": "address"
        },
        {
          "indexed": true,
          "internalType": "address",
          "name": "toDelegate",
          "type": "address"
        }
      ],
      "name": "DelegateChanged",
      "type": "event"
    },
    {
      "anonymous": false,
      "inputs": [
        {
          "indexed": true,
          "internalType": "address",
          "name": "delegate",
          "type": "address"
        },
        {
          "indexed": false,
          "internalType": "uint256",
          "name": "previousBalance",
          "type": "uint256"
        },
        {
          "indexed": false,
          "internalType": "uint256",
          "name": "newBalance",
          "type": "uint256"
        }
      ],
      "name": "DelegateVotesChanged",
      "type": "event"
    },
    {
      "anonymous": false,
      "inputs": [
        {
          "indexed": true,
          "internalType": "address",
          "name": "previousOwner",
          "type": "address"
        },
        {
          "indexed": true,
          "internalType": "address",
          "name": "newOwner",
          "type": "address"
        }
      ],
      "name": "OwnershipTransferred",
      "type": "event"
    },
    {
      "anonymous": false,
      "inputs": [
        {
          "indexed": false,
          "internalType": "address",
          "name": "account",
          "type": "address"
        }
      ],
      "name": "Paused",
      "type": "event"
    },
    {
      "anonymous": false,
      "inputs": [
        {
          "indexed": false,
          "internalType": "string",
          "name": "name",
          "type": "string"
        },
        {
          "indexed": false,
          "internalType": "string",
          "name": "symbol",
          "type": "string"
        }
      ],
      "name": "TokenCreated",
      "type": "event"
    },
    {
      "anonymous": false,
      "inputs": [
        {
          "indexed": true,
          "internalType": "address",
          "name": "from",
          "type": "address"
        },
        {
          "indexed": true,
          "internalType": "address",
          "name": "to",
          "type": "address"
        },
        {
          "indexed": false,
          "internalType": "uint256",
          "name": "value",
          "type": "uint256"
        }
      ],
      "name": "Transfer",
      "type": "event"
    },
    {
      "anonymous": false,
      "inputs": [
        {
          "indexed": false,
          "internalType": "address",
          "name": "account",
          "type": "address"
        }
      ],
      "name": "Unpaused",
      "type": "event"
    },
    {
      "anonymous": false,
      "inputs": [
        {
          "indexed": false,
          "internalType": "address",
          "name": "to",
          "type": "address"
        },
        {
          "indexed": false,
          "internalType": "uint256",
          "name": "amount",
          "type": "uint256"
        },
        {
          "indexed": false,
          "internalType": "uint256",
          "name": "balanceOf",
          "type": "uint256"
        }
      ],
      "name": "balanceChanged",
      "type": "event"
    },
    {
      "inputs": [],
      "name": "DOMAIN_SEPARATOR",
      "outputs": [
        {
          "internalType": "bytes32",
          "name": "",
          "type": "bytes32"
        }
      ],
      "stateMutability": "view",
      "type": "function"
    },
    {
      "inputs": [
        {
          "internalType": "address",
          "name": "owner",
          "type": "address"
        },
        {
          "internalType": "address",
          "name": "spender",
          "type": "address"
        }
      ],
      "name": "allowance",
      "outputs": [
        {
          "internalType": "uint256",
          "name": "",
          "type": "uint256"
        }
      ],
      "stateMutability": "view",
      "type": "function"
    },
    {
      "inputs": [
        {
          "internalType": "address",
          "name": "spender",
          "type": "address"
        },
        {
          "internalType": "uint256",
          "name": "amount",
          "type": "uint256"
        }
      ],
      "name": "approve",
      "outputs": [
        {
          "internalType": "bool",
          "name": "",
          "type": "bool"
        }
      ],
      "stateMutability": "nonpayable",
      "type": "function"
    },
    {
      "inputs": [
        {
          "internalType": "address",
          "name": "account",
          "type": "address"
        }
      ],
      "name": "balanceOf",
      "outputs": [
        {
          "internalType": "uint256",
          "name": "",
          "type": "uint256"
        }
      ],
      "stateMutability": "view",
      "type": "function"
    },
    {
      "inputs": [
        {
          "internalType": "uint256",
          "name": "amount",
          "type": "uint256"
        }
      ],
      "name": "burn",
      "outputs": [],
      "stateMutability": "nonpayable",
      "type": "function"
    },
    {
      "inputs": [
        {
          "internalType": "address",
          "name": "account",
          "type": "address"
        },
        {
          "internalType": "uint256",
          "name": "amount",
          "type": "uint256"
        }
      ],
      "name": "burnFrom",
      "outputs": [],
      "stateMutability": "nonpayable",
      "type": "function"
    },
    {
      "inputs": [
        {
          "internalType": "address",
          "name": "account",
          "type": "address"
        },
        {
          "internalType": "uint32",
          "name": "pos",
          "type": "uint32"
        }
      ],
      "name": "checkpoints",
      "outputs": [
        {
          "components": [
            {
              "internalType": "uint32",
              "name": "fromBlock",
              "type": "uint32"
            },
            {
              "internalType": "uint224",
              "name": "votes",
              "type": "uint224"
            }
          ],
          "internalType": "struct ERC20Votes.Checkpoint",
          "name": "",
          "type": "tuple"
        }
      ],
      "stateMutability": "view",
      "type": "function"
    },
    {
      "inputs": [],
      "name": "decimals",
      "outputs": [
        {
          "internalType": "uint8",
          "name": "",
          "type": "uint8"
        }
      ],
      "stateMutability": "view",
      "type": "function"
    },
    {
      "inputs": [
        {
          "internalType": "address",
          "name": "spender",
          "type": "address"
        },
        {
          "internalType": "uint256",
          "name": "subtractedValue",
          "type": "uint256"
        }
      ],
      "name": "decreaseAllowance",
      "outputs": [
        {
          "internalType": "bool",
          "name": "",
          "type": "bool"
        }
      ],
      "stateMutability": "nonpayable",
      "type": "function"
    },
    {
      "inputs": [
        {
          "internalType": "address",
          "name": "delegatee",
          "type": "address"
        }
      ],
      "name": "delegate",
      "outputs": [],
      "stateMutability": "nonpayable",
      "type": "function"
    },
    {
      "inputs": [
        {
          "internalType": "address",
          "name": "delegatee",
          "type": "address"
        },
        {
          "internalType": "uint256",
          "name": "nonce",
          "type": "uint256"
        },
        {
          "internalType": "uint256",
          "name": "expiry",
          "type": "uint256"
        },
        {
          "internalType": "uint8",
          "name": "v",
          "type": "uint8"
        },
        {
          "internalType": "bytes32",
          "name": "r",
          "type": "bytes32"
        },
        {
          "internalType": "bytes32",
          "name": "s",
          "type": "bytes32"
        }
      ],
      "name": "delegateBySig",
      "outputs": [],
      "stateMutability": "nonpayable",
      "type": "function"
    },
    {
      "inputs": [
        {
          "internalType": "address",
          "name": "account",
          "type": "address"
        }
      ],
      "name": "delegates",
      "outputs": [
        {
          "internalType": "address",
          "name": "",
          "type": "address"
        }
      ],
      "stateMutability": "view",
      "type": "function"
    },
    {
      "inputs": [
        {
          "internalType": "uint256",
          "name": "blockNumber",
          "type": "uint256"
        }
      ],
      "name": "getPastTotalSupply",
      "outputs": [
        {
          "internalType": "uint256",
          "name": "",
          "type": "uint256"
        }
      ],
      "stateMutability": "view",
      "type": "function"
    },
    {
      "inputs": [
        {
          "internalType": "address",
          "name": "account",
          "type": "address"
        },
        {
          "internalType": "uint256",
          "name": "blockNumber",
          "type": "uint256"
        }
      ],
      "name": "getPastVotes",
      "outputs": [
        {
          "internalType": "uint256",
          "name": "",
          "type": "uint256"
        }
      ],
      "stateMutability": "view",
      "type": "function"
    },
    {
      "inputs": [
        {
          "internalType": "address",
          "name": "account",
          "type": "address"
        }
      ],
      "name": "getVotes",
      "outputs": [
        {
          "internalType": "uint256",
          "name": "",
          "type": "uint256"
        }
      ],
      "stateMutability": "view",
      "type": "function"
    },
    {
      "inputs": [
        {
          "internalType": "address",
          "name": "spender",
          "type": "address"
        },
        {
          "internalType": "uint256",
          "name": "addedValue",
          "type": "uint256"
        }
      ],
      "name": "increaseAllowance",
      "outputs": [
        {
          "internalType": "bool",
          "name": "",
          "type": "bool"
        }
      ],
      "stateMutability": "nonpayable",
      "type": "function"
    },
    {
      "inputs": [],
      "name": "name",
      "outputs": [
        {
          "internalType": "string",
          "name": "",
          "type": "string"
        }
      ],
      "stateMutability": "view",
      "type": "function"
    },
    {
      "inputs": [
        {
          "internalType": "address",
          "name": "owner",
          "type": "address"
        }
      ],
      "name": "nonces",
      "outputs": [
        {
          "internalType": "uint256",
          "name": "",
          "type": "uint256"
        }
      ],
      "stateMutability": "view",
      "type": "function"
    },
    {
      "inputs": [
        {
          "internalType": "address",
          "name": "account",
          "type": "address"
        }
      ],
      "name": "numCheckpoints",
      "outputs": [
        {
          "internalType": "uint32",
          "name": "",
          "type": "uint32"
        }
      ],
      "stateMutability": "view",
      "type": "function"
    },
    {
      "inputs": [],
      "name": "owner",
      "outputs": [
        {
          "internalType": "address",
          "name": "",
          "type": "address"
        }
      ],
      "stateMutability": "view",
      "type": "function"
    },
    {
      "inputs": [],
      "name": "paused",
      "outputs": [
        {
          "internalType": "bool",
          "name": "",
          "type": "bool"
        }
      ],
      "stateMutability": "view",
      "type": "function"
    },
    {
      "inputs": [
        {
          "internalType": "address",
          "name": "owner",
          "type": "address"
        },
        {
          "internalType": "address",
          "name": "spender",
          "type": "address"
        },
        {
          "internalType": "uint256",
          "name": "value",
          "type": "uint256"
        },
        {
          "internalType": "uint256",
          "name": "deadline",
          "type": "uint256"
        },
        {
          "internalType": "uint8",
          "name": "v",
          "type": "uint8"
        },
        {
          "internalType": "bytes32",
          "name": "r",
          "type": "bytes32"
        },
        {
          "internalType": "bytes32",
          "name": "s",
          "type": "bytes32"
        }
      ],
      "name": "permit",
      "outputs": [],
      "stateMutability": "nonpayable",
      "type": "function"
    },
    {
      "inputs": [],
      "name": "renounceOwnership",
      "outputs": [],
      "stateMutability": "nonpayable",
      "type": "function"
    },
    {
      "inputs": [],
      "name": "symbol",
      "outputs": [
        {
          "internalType": "string",
          "name": "",
          "type": "string"
        }
      ],
      "stateMutability": "view",
      "type": "function"
    },
    {
      "inputs": [],
      "name": "totalSupply",
      "outputs": [
        {
          "internalType": "uint256",
          "name": "",
          "type": "uint256"
        }
      ],
      "stateMutability": "view",
      "type": "function"
    },
    {
      "inputs": [
        {
          "internalType": "address",
          "name": "to",
          "type": "address"
        },
        {
          "internalType": "uint256",
          "name": "amount",
          "type": "uint256"
        }
      ],
      "name": "transfer",
      "outputs": [
        {
          "internalType": "bool",
          "name": "",
          "type": "bool"
        }
      ],
      "stateMutability": "nonpayable",
      "type": "function"
    },
    {
      "inputs": [
        {
          "internalType": "address",
          "name": "from",
          "type": "address"
        },
        {
          "internalType": "address",
          "name": "to",
          "type": "address"
        },
        {
          "internalType": "uint256",
          "name": "amount",
          "type": "uint256"
        }
      ],
      "name": "transferFrom",
      "outputs": [
        {
          "internalType": "bool",
          "name": "",
          "type": "bool"
        }
      ],
      "stateMutability": "nonpayable",
      "type": "function"
    },
    {
      "inputs": [
        {
          "internalType": "address",
          "name": "newOwner",
          "type": "address"
        }
      ],
      "name": "transferOwnership",
      "outputs": [],
      "stateMutability": "nonpayable",
      "type": "function"
    },
    {
      "inputs": [],
      "name": "pause",
      "outputs": [],
      "stateMutability": "nonpayable",
      "type": "function"
    },
    {
      "inputs": [],
      "name": "unpause",
      "outputs": [],
      "stateMutability": "nonpayable",
      "type": "function"
    },
    {
      "inputs": [
        {
          "internalType": "address",
          "name": "to",
          "type": "address"
        },
        {
          "internalType": "uint256",
          "name": "amount",
          "type": "uint256"
        }
      ],
      "name": "mint",
      "outputs": [],
      "stateMutability": "nonpayable",
      "type": "function"
    },
    {
      "inputs": [
        {
          "internalType": "address",
          "name": "to",
          "type": "address"
        },
        {
          "internalType": "uint256",
          "name": "amount",
          "type": "uint256"
        }
      ],
      "name": "burnToken",
      "outputs": [],
      "stateMutability": "nonpayable",
      "type": "function"
    }
  ],
  "bytecode": "0x6101406040523480156200001257600080fd5b5060405162004c0e38038062004c0e833981810160405281019062000038919062000560565b81806040518060400160405280600181526020017f3100000000000000000000000000000000000000000000000000000000000000815250848481600390805190602001906200008a92919062000313565b508060049080519060200190620000a392919062000313565b5050506000600560006101000a81548160ff021916908315150217905550620000e1620000d56200020960201b60201c565b6200021160201b60201c565b60008280519060200120905060008280519060200120905060007f8b73c3c69bb8fe3d512ecc4cf759cc79239f7b179b0ffacaa9a75d522b39400f90508260e081815250508161010081815250504660a081815250506200014a818484620002d760201b60201c565b608081815250503073ffffffffffffffffffffffffffffffffffffffff1660c08173ffffffffffffffffffffffffffffffffffffffff168152505080610120818152505050505050505081600b9080519060200190620001ac92919062000313565b5080600c9080519060200190620001c592919062000313565b507ff9c545e22be560f143ae9cd69f5b3e492fab353d3708a8a670db31c32b485a838282604051620001f992919062000642565b60405180910390a15050620007ba565b600033905090565b6000600560019054906101000a900473ffffffffffffffffffffffffffffffffffffffff16905081600560016101000a81548173ffffffffffffffffffffffffffffffffffffffff021916908373ffffffffffffffffffffffffffffffffffffffff1602179055508173ffffffffffffffffffffffffffffffffffffffff168173ffffffffffffffffffffffffffffffffffffffff167f8be0079c531659141344cd1fd0a4f28419497f9722a3daafe3b4186f6b6457e060405160405180910390a35050565b60008383834630604051602001620002f4959493929190620006f8565b6040516020818303038152906040528051906020012090509392505050565b828054620003219062000784565b90600052602060002090601f01602090048101928262000345576000855562000391565b82601f106200036057805160ff191683800117855562000391565b8280016001018555821562000391579182015b828111156200039057825182559160200191906001019062000373565b5b509050620003a09190620003a4565b5090565b5b80821115620003bf576000816000905550600101620003a5565b5090565b6000604051905090565b600080fd5b600080fd5b600080fd5b600080fd5b6000601f19601f8301169050919050565b7f4e487b7100000000000000000000000000000000000000000000000000000000600052604160045260246000fd5b6200042c82620003e1565b810181811067ffffffffffffffff821117156200044e576200044d620003f2565b5b80604052505050565b600062000463620003c3565b905062000471828262000421565b919050565b600067ffffffffffffffff821115620004945762000493620003f2565b5b6200049f82620003e1565b9050602081019050919050565b60005b83811015620004cc578082015181840152602081019050620004af565b83811115620004dc576000848401525b50505050565b6000620004f9620004f38462000476565b62000457565b905082815260208101848484011115620005185762000517620003dc565b5b62000525848285620004ac565b509392505050565b600082601f830112620005455762000544620003d7565b5b815162000557848260208601620004e2565b91505092915050565b600080604083850312156200057a5762000579620003cd565b5b600083015167ffffffffffffffff8111156200059b576200059a620003d2565b5b620005a9858286016200052d565b925050602083015167ffffffffffffffff811115620005cd57620005cc620003d2565b5b620005db858286016200052d565b9150509250929050565b600081519050919050565b600082825260208201905092915050565b60006200060e82620005e5565b6200061a8185620005f0565b93506200062c818560208601620004ac565b6200063781620003e1565b840191505092915050565b600060408201905081810360008301526200065e818562000601565b9050818103602083015262000674818462000601565b90509392505050565b6000819050919050565b62000692816200067d565b82525050565b6000819050919050565b620006ad8162000698565b82525050565b600073ffffffffffffffffffffffffffffffffffffffff82169050919050565b6000620006e082620006b3565b9050919050565b620006f281620006d3565b82525050565b600060a0820190506200070f600083018862000687565b6200071e602083018762000687565b6200072d604083018662000687565b6200073c6060830185620006a2565b6200074b6080830184620006e7565b9695505050505050565b7f4e487b7100000000000000000000000000000000000000000000000000000000600052602260045260246000fd5b600060028204905060018216806200079d57607f821691505b60208210811415620007b457620007b362000755565b5b50919050565b60805160a05160c05160e05161010051610120516144046200080a6000396000611777015260006117b901526000611798015260006116cd015260006117230152600061174c01526144046000f3fe608060405234801561001057600080fd5b50600436106101f05760003560e01c8063715018a61161010f578063a457c2d7116100a2578063d505accf11610071578063d505accf146105cd578063dd62ed3e146105e9578063f1127ed814610619578063f2fde38b14610649576101f0565b8063a457c2d714610535578063a9059cbb14610565578063c3cda52014610595578063d1df306c146105b1576101f0565b80638da5cb5b116100de5780638da5cb5b146104995780638e539e8c146104b757806395d89b41146104e75780639ab24eb014610505576101f0565b8063715018a61461043957806379cc6790146104435780637ecebe001461045f5780638456cb591461048f576101f0565b80633f4ba83a116101875780635c19a95c116101565780635c19a95c1461039f5780635c975abb146103bb5780636fcfff45146103d957806370a0823114610409576101f0565b80633f4ba83a1461032d57806340c10f191461033757806342966c6814610353578063587cde1e1461036f576101f0565b8063313ce567116101c3578063313ce567146102915780633644e515146102af57806339509351146102cd5780633a46b1a8146102fd576101f0565b806306fdde03146101f5578063095ea7b31461021357806318160ddd1461024357806323b872dd14610261575b600080fd5b6101fd610665565b60405161020a9190612d95565b60405180910390f35b61022d60048036038101906102289190612e50565b6106f7565b60405161023a9190612eab565b60405180910390f35b61024b61071a565b6040516102589190612ed5565b60405180910390f35b61027b60048036038101906102769190612ef0565b610724565b6040516102889190612eab565b60405180910390f35b610299610753565b6040516102a69190612f5f565b60405180910390f35b6102b761075c565b6040516102c49190612f93565b60405180910390f35b6102e760048036038101906102e29190612e50565b61076b565b6040516102f49190612eab565b60405180910390f35b61031760048036038101906103129190612e50565b6107a2565b6040516103249190612ed5565b60405180910390f35b610335610836565b005b610351600480360381019061034c9190612e50565b610848565b005b61036d60048036038101906103689190612fae565b6108a1565b005b61038960048036038101906103849190612fdb565b6108b5565b6040516103969190613017565b60405180910390f35b6103b960048036038101906103b49190612fdb565b61091e565b005b6103c3610932565b6040516103d09190612eab565b60405180910390f35b6103f360048036038101906103ee9190612fdb565b610949565b6040516104009190613051565b60405180910390f35b610423600480360381019061041e9190612fdb565b61099d565b6040516104309190612ed5565b60405180910390f35b6104416109e5565b005b61045d60048036038101906104589190612e50565b6109f9565b005b61047960048036038101906104749190612fdb565b610a19565b6040516104869190612ed5565b60405180910390f35b610497610a69565b005b6104a1610a7b565b6040516104ae9190613017565b60405180910390f35b6104d160048036038101906104cc9190612fae565b610aa5565b6040516104de9190612ed5565b60405180910390f35b6104ef610afb565b6040516104fc9190612d95565b60405180910390f35b61051f600480360381019061051a9190612fdb565b610b8d565b60405161052c9190612ed5565b60405180910390f35b61054f600480360381019061054a9190612e50565b610c9e565b60405161055c9190612eab565b60405180910390f35b61057f600480360381019061057a9190612e50565b610d15565b60405161058c9190612eab565b60405180910390f35b6105af60048036038101906105aa91906130c4565b610d38565b005b6105cb60048036038101906105c69190612e50565b610e3c565b005b6105e760048036038101906105e29190613151565b610e95565b005b61060360048036038101906105fe91906131f3565b610fd7565b6040516106109190612ed5565b60405180910390f35b610633600480360381019061062e919061325f565b61105e565b6040516106409190613314565b60405180910390f35b610663600480360381019061065e9190612fdb565b61116e565b005b6060600380546106749061335e565b80601f01602080910402602001604051908101604052809291908181526020018280546106a09061335e565b80156106ed5780601f106106c2576101008083540402835291602001916106ed565b820191906000526020600020905b8154815290600101906020018083116106d057829003601f168201915b5050505050905090565b6000806107026111f2565b905061070f8185856111fa565b600191505092915050565b6000600254905090565b60008061072f6111f2565b905061073c8582856113c5565b610747858585611451565b60019150509392505050565b60006012905090565b60006107666116c9565b905090565b6000806107766111f2565b90506107978185856107888589610fd7565b61079291906133bf565b6111fa565b600191505092915050565b60004382106107e6576040517f08c379a00000000000000000000000000000000000000000000000000000000081526004016107dd90613461565b60405180910390fd5b61082e600960008573ffffffffffffffffffffffffffffffffffffffff1673ffffffffffffffffffffffffffffffffffffffff168152602001908152602001600020836117e3565b905092915050565b61083e611934565b6108466119b2565b565b610850611934565b61085a8282611a15565b7f9514920c08fa4373c9a5b5890506117cc1440d576c6db247e5efad7bfd49ec7182826108868561099d565b60405161089593929190613481565b60405180910390a15050565b6108b26108ac6111f2565b82611a23565b50565b6000600860008373ffffffffffffffffffffffffffffffffffffffff1673ffffffffffffffffffffffffffffffffffffffff16815260200190815260200160002060009054906101000a900473ffffffffffffffffffffffffffffffffffffffff169050919050565b61092f6109296111f2565b82611a31565b50565b6000600560009054906101000a900460ff16905090565b6000610996600960008473ffffffffffffffffffffffffffffffffffffffff1673ffffffffffffffffffffffffffffffffffffffff16815260200190815260200160002080549050611b4b565b9050919050565b60008060008373ffffffffffffffffffffffffffffffffffffffff1673ffffffffffffffffffffffffffffffffffffffff168152602001908152602001600020549050919050565b6109ed611934565b6109f76000611b9e565b565b610a0b82610a056111f2565b836113c5565b610a158282611a23565b5050565b6000610a62600660008473ffffffffffffffffffffffffffffffffffffffff1673ffffffffffffffffffffffffffffffffffffffff168152602001908152602001600020611c64565b9050919050565b610a71611934565b610a79611c72565b565b6000600560019054906101000a900473ffffffffffffffffffffffffffffffffffffffff16905090565b6000438210610ae9576040517f08c379a0000000000000000000000000000000000000000000000000000000008152600401610ae090613461565b60405180910390fd5b610af4600a836117e3565b9050919050565b606060048054610b0a9061335e565b80601f0160208091040260200160405190810160405280929190818152602001828054610b369061335e565b8015610b835780601f10610b5857610100808354040283529160200191610b83565b820191906000526020600020905b815481529060010190602001808311610b6657829003601f168201915b5050505050905090565b600080600960008473ffffffffffffffffffffffffffffffffffffffff1673ffffffffffffffffffffffffffffffffffffffff16815260200190815260200160002080549050905060008114610c7557600960008473ffffffffffffffffffffffffffffffffffffffff1673ffffffffffffffffffffffffffffffffffffffff168152602001908152602001600020600182610c2991906134b8565b81548110610c3a57610c396134ec565b5b9060005260206000200160000160049054906101000a90047bffffffffffffffffffffffffffffffffffffffffffffffffffffffff16610c78565b60005b7bffffffffffffffffffffffffffffffffffffffffffffffffffffffff16915050919050565b600080610ca96111f2565b90506000610cb78286610fd7565b905083811015610cfc576040517f08c379a0000000000000000000000000000000000000000000000000000000008152600401610cf39061358d565b60405180910390fd5b610d0982868684036111fa565b60019250505092915050565b600080610d206111f2565b9050610d2d818585611451565b600191505092915050565b83421115610d7b576040517f08c379a0000000000000000000000000000000000000000000000000000000008152600401610d72906135f9565b60405180910390fd5b6000610ddd610dd57fe48329057bfd03d55e49b547132e39cffd9c1820ad7b9d4c5307691425d15adf898989604051602001610dba9493929190613619565b60405160208183030381529060405280519060200120611cd5565b858585611cef565b9050610de881611d1a565b8614610e29576040517f08c379a0000000000000000000000000000000000000000000000000000000008152600401610e20906136aa565b60405180910390fd5b610e338188611a31565b50505050505050565b610e44611934565b610e4e8282611a23565b7f9514920c08fa4373c9a5b5890506117cc1440d576c6db247e5efad7bfd49ec718282610e7a8561099d565b604051610e8993929190613481565b60405180910390a15050565b83421115610ed8576040517f08c379a0000000000000000000000000000000000000000000000000000000008152600401610ecf90613716565b60405180910390fd5b60007f6e71edae12b1b97f4d1f60370fef10105fa2faae0126114a169c64845d6126c9888888610f078c611d1a565b89604051602001610f1d96959493929190613736565b6040516020818303038152906040528051906020012090506000610f4082611cd5565b90506000610f5082878787611cef565b90508973ffffffffffffffffffffffffffffffffffffffff168173ffffffffffffffffffffffffffffffffffffffff1614610fc0576040517f08c379a0000000000000000000000000000000000000000000000000000000008152600401610fb7906137e3565b60405180910390fd5b610fcb8a8a8a6111fa565b50505050505050505050565b6000600160008473ffffffffffffffffffffffffffffffffffffffff1673ffffffffffffffffffffffffffffffffffffffff16815260200190815260200160002060008373ffffffffffffffffffffffffffffffffffffffff1673ffffffffffffffffffffffffffffffffffffffff16815260200190815260200160002054905092915050565b611066612cbe565b600960008473ffffffffffffffffffffffffffffffffffffffff1673ffffffffffffffffffffffffffffffffffffffff1681526020019081526020016000208263ffffffff16815481106110bd576110bc6134ec565b5b906000526020600020016040518060400160405290816000820160009054906101000a900463ffffffff1663ffffffff1663ffffffff1681526020016000820160049054906101000a90047bffffffffffffffffffffffffffffffffffffffffffffffffffffffff167bffffffffffffffffffffffffffffffffffffffffffffffffffffffff167bffffffffffffffffffffffffffffffffffffffffffffffffffffffff1681525050905092915050565b611176611934565b600073ffffffffffffffffffffffffffffffffffffffff168173ffffffffffffffffffffffffffffffffffffffff1614156111e6576040517f08c379a00000000000000000000000000000000000000000000000000000000081526004016111dd90613875565b60405180910390fd5b6111ef81611b9e565b50565b600033905090565b600073ffffffffffffffffffffffffffffffffffffffff168373ffffffffffffffffffffffffffffffffffffffff16141561126a576040517f08c379a000000000000000000000000000000000000000000000000000000000815260040161126190613907565b60405180910390fd5b600073ffffffffffffffffffffffffffffffffffffffff168273ffffffffffffffffffffffffffffffffffffffff1614156112da576040517f08c379a00000000000000000000000000000000000000000000000000000000081526004016112d190613999565b60405180910390fd5b80600160008573ffffffffffffffffffffffffffffffffffffffff1673ffffffffffffffffffffffffffffffffffffffff16815260200190815260200160002060008473ffffffffffffffffffffffffffffffffffffffff1673ffffffffffffffffffffffffffffffffffffffff168152602001908152602001600020819055508173ffffffffffffffffffffffffffffffffffffffff168373ffffffffffffffffffffffffffffffffffffffff167f8c5be1e5ebec7d5bd14f71427d1e84f3dd0314c0f7b2291e5b200ac8c7c3b925836040516113b89190612ed5565b60405180910390a3505050565b60006113d18484610fd7565b90507fffffffffffffffffffffffffffffffffffffffffffffffffffffffffffffffff811461144b578181101561143d576040517f08c379a000000000000000000000000000000000000000000000000000000000815260040161143490613a05565b60405180910390fd5b61144a84848484036111fa565b5b50505050565b600073ffffffffffffffffffffffffffffffffffffffff168373ffffffffffffffffffffffffffffffffffffffff1614156114c1576040517f08c379a00000000000000000000000000000000000000000000000000000000081526004016114b890613a97565b60405180910390fd5b600073ffffffffffffffffffffffffffffffffffffffff168273ffffffffffffffffffffffffffffffffffffffff161415611531576040517f08c379a000000000000000000000000000000000000000000000000000000000815260040161152890613b29565b60405180910390fd5b61153c838383611d78565b60008060008573ffffffffffffffffffffffffffffffffffffffff1673ffffffffffffffffffffffffffffffffffffffff168152602001908152602001600020549050818110156115c2576040517f08c379a00000000000000000000000000000000000000000000000000000000081526004016115b990613bbb565b60405180910390fd5b8181036000808673ffffffffffffffffffffffffffffffffffffffff1673ffffffffffffffffffffffffffffffffffffffff16815260200190815260200160002081905550816000808573ffffffffffffffffffffffffffffffffffffffff1673ffffffffffffffffffffffffffffffffffffffff168152602001908152602001600020600082825401925050819055508273ffffffffffffffffffffffffffffffffffffffff168473ffffffffffffffffffffffffffffffffffffffff167fddf252ad1be2c89b69c2b068fc378daa952ba7f163c4a11628f55a4df523b3ef846040516116b09190612ed5565b60405180910390a36116c3848484611d90565b50505050565b60007f000000000000000000000000000000000000000000000000000000000000000073ffffffffffffffffffffffffffffffffffffffff163073ffffffffffffffffffffffffffffffffffffffff1614801561174557507f000000000000000000000000000000000000000000000000000000000000000046145b15611772577f000000000000000000000000000000000000000000000000000000000000000090506117e0565b6117dd7f00000000000000000000000000000000000000000000000000000000000000007f00000000000000000000000000000000000000000000000000000000000000007f0000000000000000000000000000000000000000000000000000000000000000611da0565b90505b90565b60008083805490509050600080829050600583111561185957600061180784611dda565b8461181291906134b8565b90508561181f8883611ed4565b60000160009054906101000a900463ffffffff1663ffffffff16111561184757809150611857565b60018161185491906133bf565b92505b505b5b808210156118b957600061186e8383611ee9565b90508561187b8883611ed4565b60000160009054906101000a900463ffffffff1663ffffffff1611156118a3578091506118b3565b6001816118b091906133bf565b92505b5061185a565b60008114611908576118d7866001836118d291906134b8565b611ed4565b60000160049054906101000a90047bffffffffffffffffffffffffffffffffffffffffffffffffffffffff1661190b565b60005b7bffffffffffffffffffffffffffffffffffffffffffffffffffffffff16935050505092915050565b61193c6111f2565b73ffffffffffffffffffffffffffffffffffffffff1661195a610a7b565b73ffffffffffffffffffffffffffffffffffffffff16146119b0576040517f08c379a00000000000000000000000000000000000000000000000000000000081526004016119a790613c27565b60405180910390fd5b565b6119ba611f0f565b6000600560006101000a81548160ff0219169083151502179055507f5db9ee0a495bf2e6ff9c91a7834c1ba4fdd244a5e8aa4e537bd38aeae4b073aa6119fe6111f2565b604051611a0b9190613017565b60405180910390a1565b611a1f8282611f58565b5050565b611a2d8282611fe5565b5050565b6000611a3c836108b5565b90506000611a498461099d565b905082600860008673ffffffffffffffffffffffffffffffffffffffff1673ffffffffffffffffffffffffffffffffffffffff16815260200190815260200160002060006101000a81548173ffffffffffffffffffffffffffffffffffffffff021916908373ffffffffffffffffffffffffffffffffffffffff1602179055508273ffffffffffffffffffffffffffffffffffffffff168273ffffffffffffffffffffffffffffffffffffffff168573ffffffffffffffffffffffffffffffffffffffff167f3134e8a2e6d97e929a7e54011ea5485d7d196dd5f0ba4d4ef95803e8e3fc257f60405160405180910390a4611b45828483612003565b50505050565b600063ffffffff8016821115611b96576040517f08c379a0000000000000000000000000000000000000000000000000000000008152600401611b8d90613cb9565b60405180910390fd5b819050919050565b6000600560019054906101000a900473ffffffffffffffffffffffffffffffffffffffff16905081600560016101000a81548173ffffffffffffffffffffffffffffffffffffffff021916908373ffffffffffffffffffffffffffffffffffffffff1602179055508173ffffffffffffffffffffffffffffffffffffffff168173ffffffffffffffffffffffffffffffffffffffff167f8be0079c531659141344cd1fd0a4f28419497f9722a3daafe3b4186f6b6457e060405160405180910390a35050565b600081600001549050919050565b611c7a6121fc565b6001600560006101000a81548160ff0219169083151502179055507f62e78cea01bee320cd4e420270b5ea74000d11b0c9f74754ebdbfc544b05a258611cbe6111f2565b604051611ccb9190613017565b60405180910390a1565b6000611ce8611ce26116c9565b83612246565b9050919050565b6000806000611d0087878787612279565b91509150611d0d8161235c565b8192505050949350505050565b600080600660008473ffffffffffffffffffffffffffffffffffffffff1673ffffffffffffffffffffffffffffffffffffffff1681526020019081526020016000209050611d6781611c64565b9150611d72816124ca565b50919050565b611d806121fc565b611d8b8383836124e0565b505050565b611d9b8383836124e5565b505050565b60008383834630604051602001611dbb959493929190613cd9565b6040516020818303038152906040528051906020012090509392505050565b600080821415611ded5760009050611ecf565b60006001611dfa84612510565b901c6001901b90506001818481611e1457611e13613d2c565b5b048201901c90506001818481611e2d57611e2c613d2c565b5b048201901c90506001818481611e4657611e45613d2c565b5b048201901c90506001818481611e5f57611e5e613d2c565b5b048201901c90506001818481611e7857611e77613d2c565b5b048201901c90506001818481611e9157611e90613d2c565b5b048201901c90506001818481611eaa57611ea9613d2c565b5b048201901c9050611ecb81828581611ec557611ec4613d2c565b5b046125f1565b9150505b919050565b60008260005281602060002001905092915050565b60006002828418611efa9190613d5b565b828416611f0791906133bf565b905092915050565b611f17610932565b611f56576040517f08c379a0000000000000000000000000000000000000000000000000000000008152600401611f4d90613dd8565b60405180910390fd5b565b611f62828261260a565b611f6a612761565b7bffffffffffffffffffffffffffffffffffffffffffffffffffffffff16611f9061071a565b1115611fd1576040517f08c379a0000000000000000000000000000000000000000000000000000000008152600401611fc890613e6a565b60405180910390fd5b611fdf600a6127858361279b565b50505050565b611fef8282612a6a565b611ffd600a612c388361279b565b50505050565b8173ffffffffffffffffffffffffffffffffffffffff168373ffffffffffffffffffffffffffffffffffffffff161415801561203f5750600081115b156121f757600073ffffffffffffffffffffffffffffffffffffffff168373ffffffffffffffffffffffffffffffffffffffff161461211d576000806120c6600960008773ffffffffffffffffffffffffffffffffffffffff1673ffffffffffffffffffffffffffffffffffffffff168152602001908152602001600020612c388561279b565b915091508473ffffffffffffffffffffffffffffffffffffffff167fdec2bacdd2f05b59de34da9b523dff8be42e5e38e818c82fdb0bae774387a7248383604051612112929190613e8a565b60405180910390a250505b600073ffffffffffffffffffffffffffffffffffffffff168273ffffffffffffffffffffffffffffffffffffffff16146121f65760008061219f600960008673ffffffffffffffffffffffffffffffffffffffff1673ffffffffffffffffffffffffffffffffffffffff1681526020019081526020016000206127858561279b565b915091508373ffffffffffffffffffffffffffffffffffffffff167fdec2bacdd2f05b59de34da9b523dff8be42e5e38e818c82fdb0bae774387a72483836040516121eb929190613e8a565b60405180910390a250505b5b505050565b612204610932565b15612244576040517f08c379a000000000000000000000000000000000000000000000000000000000815260040161223b90613eff565b60405180910390fd5b565b6000828260405160200161225b929190613f97565b60405160208183030381529060405280519060200120905092915050565b6000807f7fffffffffffffffffffffffffffffff5d576e7357a4501ddfe92f46681b20a08360001c11156122b4576000600391509150612353565b6000600187878787604051600081526020016040526040516122d99493929190613fce565b6020604051602081039080840390855afa1580156122fb573d6000803e3d6000fd5b505050602060405103519050600073ffffffffffffffffffffffffffffffffffffffff168173ffffffffffffffffffffffffffffffffffffffff16141561234a57600060019250925050612353565b80600092509250505b94509492505050565b600060048111156123705761236f614013565b5b81600481111561238357612382614013565b5b141561238e576124c7565b600160048111156123a2576123a1614013565b5b8160048111156123b5576123b4614013565b5b14156123f6576040517f08c379a00000000000000000000000000000000000000000000000000000000081526004016123ed9061408e565b60405180910390fd5b6002600481111561240a57612409614013565b5b81600481111561241d5761241c614013565b5b141561245e576040517f08c379a0000000000000000000000000000000000000000000000000000000008152600401612455906140fa565b60405180910390fd5b6003600481111561247257612471614013565b5b81600481111561248557612484614013565b5b14156124c6576040517f08c379a00000000000000000000000000000000000000000000000000000000081526004016124bd9061418c565b60405180910390fd5b5b50565b6001816000016000828254019250508190555050565b505050565b6124f0838383612c4e565b61250b6124fc846108b5565b612505846108b5565b83612003565b505050565b600080600090506000608084901c111561253257608083901c92506080810190505b6000604084901c111561254d57604083901c92506040810190505b6000602084901c111561256857602083901c92506020810190505b6000601084901c111561258357601083901c92506010810190505b6000600884901c111561259e57600883901c92506008810190505b6000600484901c11156125b957600483901c92506004810190505b6000600284901c11156125d457600283901c92506002810190505b6000600184901c11156125e8576001810190505b80915050919050565b60008183106126005781612602565b825b905092915050565b600073ffffffffffffffffffffffffffffffffffffffff168273ffffffffffffffffffffffffffffffffffffffff16141561267a576040517f08c379a0000000000000000000000000000000000000000000000000000000008152600401612671906141f8565b60405180910390fd5b61268660008383611d78565b806002600082825461269891906133bf565b92505081905550806000808473ffffffffffffffffffffffffffffffffffffffff1673ffffffffffffffffffffffffffffffffffffffff168152602001908152602001600020600082825401925050819055508173ffffffffffffffffffffffffffffffffffffffff16600073ffffffffffffffffffffffffffffffffffffffff167fddf252ad1be2c89b69c2b068fc378daa952ba7f163c4a11628f55a4df523b3ef836040516127499190612ed5565b60405180910390a361275d60008383611d90565b5050565b60007bffffffffffffffffffffffffffffffffffffffffffffffffffffffff905090565b6000818361279391906133bf565b905092915050565b600080600085805490509050600080821461286a576127c6876001846127c191906134b8565b611ed4565b6040518060400160405290816000820160009054906101000a900463ffffffff1663ffffffff1663ffffffff1681526020016000820160049054906101000a90047bffffffffffffffffffffffffffffffffffffffffffffffffffffffff167bffffffffffffffffffffffffffffffffffffffffffffffffffffffff167bffffffffffffffffffffffffffffffffffffffffffffffffffffffff16815250506128a6565b6040518060400160405280600063ffffffff16815260200160007bffffffffffffffffffffffffffffffffffffffffffffffffffffffff168152505b905080602001517bffffffffffffffffffffffffffffffffffffffffffffffffffffffff1693506128db84868863ffffffff16565b92506000821180156128f6575043816000015163ffffffff16145b156129705761290483612c53565b61291a8860018561291591906134b8565b611ed4565b60000160046101000a8154817bffffffffffffffffffffffffffffffffffffffffffffffffffffffff02191690837bffffffffffffffffffffffffffffffffffffffffffffffffffffffff160217905550612a60565b86604051806040016040528061298543611b4b565b63ffffffff16815260200161299986612c53565b7bffffffffffffffffffffffffffffffffffffffffffffffffffffffff168152509080600181540180825580915050600190039060005260206000200160009091909190915060008201518160000160006101000a81548163ffffffff021916908363ffffffff16021790555060208201518160000160046101000a8154817bffffffffffffffffffffffffffffffffffffffffffffffffffffffff02191690837bffffffffffffffffffffffffffffffffffffffffffffffffffffffff16021790555050505b5050935093915050565b600073ffffffffffffffffffffffffffffffffffffffff168273ffffffffffffffffffffffffffffffffffffffff161415612ada576040517f08c379a0000000000000000000000000000000000000000000000000000000008152600401612ad19061428a565b60405180910390fd5b612ae682600083611d78565b60008060008473ffffffffffffffffffffffffffffffffffffffff1673ffffffffffffffffffffffffffffffffffffffff16815260200190815260200160002054905081811015612b6c576040517f08c379a0000000000000000000000000000000000000000000000000000000008152600401612b639061431c565b60405180910390fd5b8181036000808573ffffffffffffffffffffffffffffffffffffffff1673ffffffffffffffffffffffffffffffffffffffff1681526020019081526020016000208190555081600260008282540392505081905550600073ffffffffffffffffffffffffffffffffffffffff168373ffffffffffffffffffffffffffffffffffffffff167fddf252ad1be2c89b69c2b068fc378daa952ba7f163c4a11628f55a4df523b3ef84604051612c1f9190612ed5565b60405180910390a3612c3383600084611d90565b505050565b60008183612c4691906134b8565b905092915050565b505050565b60007bffffffffffffffffffffffffffffffffffffffffffffffffffffffff8016821115612cb6576040517f08c379a0000000000000000000000000000000000000000000000000000000008152600401612cad906143ae565b60405180910390fd5b819050919050565b6040518060400160405280600063ffffffff16815260200160007bffffffffffffffffffffffffffffffffffffffffffffffffffffffff1681525090565b600081519050919050565b600082825260208201905092915050565b60005b83811015612d36578082015181840152602081019050612d1b565b83811115612d45576000848401525b50505050565b6000601f19601f8301169050919050565b6000612d6782612cfc565b612d718185612d07565b9350612d81818560208601612d18565b612d8a81612d4b565b840191505092915050565b60006020820190508181036000830152612daf8184612d5c565b905092915050565b600080fd5b600073ffffffffffffffffffffffffffffffffffffffff82169050919050565b6000612de782612dbc565b9050919050565b612df781612ddc565b8114612e0257600080fd5b50565b600081359050612e1481612dee565b92915050565b6000819050919050565b612e2d81612e1a565b8114612e3857600080fd5b50565b600081359050612e4a81612e24565b92915050565b60008060408385031215612e6757612e66612db7565b5b6000612e7585828601612e05565b9250506020612e8685828601612e3b565b9150509250929050565b60008115159050919050565b612ea581612e90565b82525050565b6000602082019050612ec06000830184612e9c565b92915050565b612ecf81612e1a565b82525050565b6000602082019050612eea6000830184612ec6565b92915050565b600080600060608486031215612f0957612f08612db7565b5b6000612f1786828701612e05565b9350506020612f2886828701612e05565b9250506040612f3986828701612e3b565b9150509250925092565b600060ff82169050919050565b612f5981612f43565b82525050565b6000602082019050612f746000830184612f50565b92915050565b6000819050919050565b612f8d81612f7a565b82525050565b6000602082019050612fa86000830184612f84565b92915050565b600060208284031215612fc457612fc3612db7565b5b6000612fd284828501612e3b565b91505092915050565b600060208284031215612ff157612ff0612db7565b5b6000612fff84828501612e05565b91505092915050565b61301181612ddc565b82525050565b600060208201905061302c6000830184613008565b92915050565b600063ffffffff82169050919050565b61304b81613032565b82525050565b60006020820190506130666000830184613042565b92915050565b61307581612f43565b811461308057600080fd5b50565b6000813590506130928161306c565b92915050565b6130a181612f7a565b81146130ac57600080fd5b50565b6000813590506130be81613098565b92915050565b60008060008060008060c087890312156130e1576130e0612db7565b5b60006130ef89828a01612e05565b965050602061310089828a01612e3b565b955050604061311189828a01612e3b565b945050606061312289828a01613083565b935050608061313389828a016130af565b92505060a061314489828a016130af565b9150509295509295509295565b600080600080600080600060e0888a0312156131705761316f612db7565b5b600061317e8a828b01612e05565b975050602061318f8a828b01612e05565b96505060406131a08a828b01612e3b565b95505060606131b18a828b01612e3b565b94505060806131c28a828b01613083565b93505060a06131d38a828b016130af565b92505060c06131e48a828b016130af565b91505092959891949750929550565b6000806040838503121561320a57613209612db7565b5b600061321885828601612e05565b925050602061322985828601612e05565b9150509250929050565b61323c81613032565b811461324757600080fd5b50565b60008135905061325981613233565b92915050565b6000806040838503121561327657613275612db7565b5b600061328485828601612e05565b92505060206132958582860161324a565b9150509250929050565b6132a881613032565b82525050565b60007bffffffffffffffffffffffffffffffffffffffffffffffffffffffff82169050919050565b6132df816132ae565b82525050565b6040820160008201516132fb600085018261329f565b50602082015161330e60208501826132d6565b50505050565b600060408201905061332960008301846132e5565b92915050565b7f4e487b7100000000000000000000000000000000000000000000000000000000600052602260045260246000fd5b6000600282049050600182168061337657607f821691505b6020821081141561338a5761338961332f565b5b50919050565b7f4e487b7100000000000000000000000000000000000000000000000000000000600052601160045260246000fd5b60006133ca82612e1a565b91506133d583612e1a565b9250827fffffffffffffffffffffffffffffffffffffffffffffffffffffffffffffffff0382111561340a57613409613390565b5b828201905092915050565b7f4552433230566f7465733a20626c6f636b206e6f7420796574206d696e656400600082015250565b600061344b601f83612d07565b915061345682613415565b602082019050919050565b6000602082019050818103600083015261347a8161343e565b9050919050565b60006060820190506134966000830186613008565b6134a36020830185612ec6565b6134b06040830184612ec6565b949350505050565b60006134c382612e1a565b91506134ce83612e1a565b9250828210156134e1576134e0613390565b5b828203905092915050565b7f4e487b7100000000000000000000000000000000000000000000000000000000600052603260045260246000fd5b7f45524332303a2064656372656173656420616c6c6f77616e63652062656c6f7760008201527f207a65726f000000000000000000000000000000000000000000000000000000602082015250565b6000613577602583612d07565b91506135828261351b565b604082019050919050565b600060208201905081810360008301526135a68161356a565b9050919050565b7f4552433230566f7465733a207369676e61747572652065787069726564000000600082015250565b60006135e3601d83612d07565b91506135ee826135ad565b602082019050919050565b60006020820190508181036000830152613612816135d6565b9050919050565b600060808201905061362e6000830187612f84565b61363b6020830186613008565b6136486040830185612ec6565b6136556060830184612ec6565b95945050505050565b7f4552433230566f7465733a20696e76616c6964206e6f6e636500000000000000600082015250565b6000613694601983612d07565b915061369f8261365e565b602082019050919050565b600060208201905081810360008301526136c381613687565b9050919050565b7f45524332305065726d69743a206578706972656420646561646c696e65000000600082015250565b6000613700601d83612d07565b915061370b826136ca565b602082019050919050565b6000602082019050818103600083015261372f816136f3565b9050919050565b600060c08201905061374b6000830189612f84565b6137586020830188613008565b6137656040830187613008565b6137726060830186612ec6565b61377f6080830185612ec6565b61378c60a0830184612ec6565b979650505050505050565b7f45524332305065726d69743a20696e76616c6964207369676e61747572650000600082015250565b60006137cd601e83612d07565b91506137d882613797565b602082019050919050565b600060208201905081810360008301526137fc816137c0565b9050919050565b7f4f776e61626c653a206e6577206f776e657220697320746865207a65726f206160008201527f6464726573730000000000000000000000000000000000000000000000000000602082015250565b600061385f602683612d07565b915061386a82613803565b604082019050919050565b6000602082019050818103600083015261388e81613852565b9050919050565b7f45524332303a20617070726f76652066726f6d20746865207a65726f2061646460008201527f7265737300000000000000000000000000000000000000000000000000000000602082015250565b60006138f1602483612d07565b91506138fc82613895565b604082019050919050565b60006020820190508181036000830152613920816138e4565b9050919050565b7f45524332303a20617070726f766520746f20746865207a65726f20616464726560008201527f7373000000000000000000000000000000000000000000000000000000000000602082015250565b6000613983602283612d07565b915061398e82613927565b604082019050919050565b600060208201905081810360008301526139b281613976565b9050919050565b7f45524332303a20696e73756666696369656e7420616c6c6f77616e6365000000600082015250565b60006139ef601d83612d07565b91506139fa826139b9565b602082019050919050565b60006020820190508181036000830152613a1e816139e2565b9050919050565b7f45524332303a207472616e736665722066726f6d20746865207a65726f20616460008201527f6472657373000000000000000000000000000000000000000000000000000000602082015250565b6000613a81602583612d07565b9150613a8c82613a25565b604082019050919050565b60006020820190508181036000830152613ab081613a74565b9050919050565b7f45524332303a207472616e7366657220746f20746865207a65726f206164647260008201527f6573730000000000000000000000000000000000000000000000000000000000602082015250565b6000613b13602383612d07565b9150613b1e82613ab7565b604082019050919050565b60006020820190508181036000830152613b4281613b06565b9050919050565b7f45524332303a207472616e7366657220616d6f756e742065786365656473206260008201527f616c616e63650000000000000000000000000000000000000000000000000000602082015250565b6000613ba5602683612d07565b9150613bb082613b49565b604082019050919050565b60006020820190508181036000830152613bd481613b98565b9050919050565b7f4f776e61626c653a2063616c6c6572206973206e6f7420746865206f776e6572600082015250565b6000613c11602083612d07565b9150613c1c82613bdb565b602082019050919050565b60006020820190508181036000830152613c4081613c04565b9050919050565b7f53616665436173743a2076616c756520646f65736e27742066697420696e203360008201527f3220626974730000000000000000000000000000000000000000000000000000602082015250565b6000613ca3602683612d07565b9150613cae82613c47565b604082019050919050565b60006020820190508181036000830152613cd281613c96565b9050919050565b600060a082019050613cee6000830188612f84565b613cfb6020830187612f84565b613d086040830186612f84565b613d156060830185612ec6565b613d226080830184613008565b9695505050505050565b7f4e487b7100000000000000000000000000000000000000000000000000000000600052601260045260246000fd5b6000613d6682612e1a565b9150613d7183612e1a565b925082613d8157613d80613d2c565b5b828204905092915050565b7f5061757361626c653a206e6f7420706175736564000000000000000000000000600082015250565b6000613dc2601483612d07565b9150613dcd82613d8c565b602082019050919050565b60006020820190508181036000830152613df181613db5565b9050919050565b7f4552433230566f7465733a20746f74616c20737570706c79207269736b73206f60008201527f766572666c6f77696e6720766f74657300000000000000000000000000000000602082015250565b6000613e54603083612d07565b9150613e5f82613df8565b604082019050919050565b60006020820190508181036000830152613e8381613e47565b9050919050565b6000604082019050613e9f6000830185612ec6565b613eac6020830184612ec6565b9392505050565b7f5061757361626c653a2070617573656400000000000000000000000000000000600082015250565b6000613ee9601083612d07565b9150613ef482613eb3565b602082019050919050565b60006020820190508181036000830152613f1881613edc565b9050919050565b600081905092915050565b7f1901000000000000000000000000000000000000000000000000000000000000600082015250565b6000613f60600283613f1f565b9150613f6b82613f2a565b600282019050919050565b6000819050919050565b613f91613f8c82612f7a565b613f76565b82525050565b6000613fa282613f53565b9150613fae8285613f80565b602082019150613fbe8284613f80565b6020820191508190509392505050565b6000608082019050613fe36000830187612f84565b613ff06020830186612f50565b613ffd6040830185612f84565b61400a6060830184612f84565b95945050505050565b7f4e487b7100000000000000000000000000000000000000000000000000000000600052602160045260246000fd5b7f45434453413a20696e76616c6964207369676e61747572650000000000000000600082015250565b6000614078601883612d07565b915061408382614042565b602082019050919050565b600060208201905081810360008301526140a78161406b565b9050919050565b7f45434453413a20696e76616c6964207369676e6174757265206c656e67746800600082015250565b60006140e4601f83612d07565b91506140ef826140ae565b602082019050919050565b60006020820190508181036000830152614113816140d7565b9050919050565b7f45434453413a20696e76616c6964207369676e6174757265202773272076616c60008201527f7565000000000000000000000000000000000000000000000000000000000000602082015250565b6000614176602283612d07565b91506141818261411a565b604082019050919050565b600060208201905081810360008301526141a581614169565b9050919050565b7f45524332303a206d696e7420746f20746865207a65726f206164647265737300600082015250565b60006141e2601f83612d07565b91506141ed826141ac565b602082019050919050565b60006020820190508181036000830152614211816141d5565b9050919050565b7f45524332303a206275726e2066726f6d20746865207a65726f2061646472657360008201527f7300000000000000000000000000000000000000000000000000000000000000602082015250565b6000614274602183612d07565b915061427f82614218565b604082019050919050565b600060208201905081810360008301526142a381614267565b9050919050565b7f45524332303a206275726e20616d6f756e7420657863656564732062616c616e60008201527f6365000000000000000000000000000000000000000000000000000000000000602082015250565b6000614306602283612d07565b9150614311826142aa565b604082019050919050565b60006020820190508181036000830152614335816142f9565b9050919050565b7f53616665436173743a2076616c756520646f65736e27742066697420696e203260008201527f3234206269747300000000000000000000000000000000000000000000000000602082015250565b6000614398602783612d07565b91506143a38261433c565b604082019050919050565b600060208201905081810360008301526143c78161438b565b905091905056fea26469706673582212202f86dbccd1cd1e4c6ccd36238263e96b0f7dcd8a09e7012cecbf7f3b69b9bba964736f6c634300080a0033",
  "immutableReferences": {
    "4119": [
      {
        "length": 32,
        "start": 5964
      }
    ],
    "4121": [
      {
        "length": 32,
        "start": 5923
      }
    ],
    "4123": [
      {
        "length": 32,
        "start": 5837
      }
    ],
    "4125": [
      {
        "length": 32,
        "start": 6040
      }
    ],
    "4127": [
      {
        "length": 32,
        "start": 6073
      }
    ],
    "4129": [
      {
        "length": 32,
        "start": 6007
      }
    ]
  },
  "source": "// SPDX-License-Identifier: MIT\npragma solidity >=0.8.0;\n\nimport \"@openzeppelin/contracts/token/ERC20/ERC20.sol\";\nimport \"@openzeppelin/contracts/token/ERC20/extensions/ERC20Burnable.sol\";\nimport \"@openzeppelin/contracts/security/Pausable.sol\";\nimport \"@openzeppelin/contracts/access/Ownable.sol\";\nimport \"@openzeppelin/contracts/token/ERC20/extensions/draft-ERC20Permit.sol\";\nimport \"@openzeppelin/contracts/token/ERC20/extensions/ERC20Votes.sol\";\n\n/**\n * MyToken Contract\n */\ncontract MyToken is\n    ERC20,\n    ERC20Burnable,\n    Pausable,\n    Ownable,\n    ERC20Permit,\n    ERC20Votes\n{\n    // \n    string tokenName;\n    // \n    string tokenSymbol;\n\n    event TokenCreated(string name, string symbol);\n    event balanceChanged(address to, uint256 amount, uint balanceOf);\n\n    /**\n     * \n     * @param _name \n     * @param _symbol \n     */\n    constructor(string memory _name, string memory _symbol)\n        ERC20(_name, _symbol)\n        ERC20Permit(_name)\n    {\n        // \n        tokenName = _name;\n        tokenSymbol = _symbol;\n\n        emit TokenCreated(_name, _symbol);\n    }\n\n    /**\n     * \n     */\n    function pause() public onlyOwner {\n        _pause();\n    }\n\n    /**\n     * \n     */\n    function unpause() public onlyOwner {\n        _unpause();\n    }\n\n    /**\n     * \n     * @param to \n     * @param amount \n     */\n    function mint(address to, uint256 amount) public onlyOwner {\n        _mint(to, amount);\n        emit balanceChanged(to, amount, balanceOf(to));\n    }\n\n    /**\n     * \n     * @param to \n     * @param amount \n     */\n    function burnToken(address to, uint256 amount) public onlyOwner {\n        _burn(to, amount);\n        emit balanceChanged(to, amount, balanceOf(to));\n    }\n\n    /**\n     * \n     * @param from \n     * @param to \n     * @param amount \n     */\n    function _beforeTokenTransfer(\n        address from,\n        address to,\n        uint256 amount\n    ) internal override whenNotPaused {\n        super._beforeTokenTransfer(from, to, amount);\n    }\n\n    /**\n     * \n     * @param from \n     * @param to \n     * @param amount \n     */\n    function _afterTokenTransfer(\n        address from,\n        address to,\n        uint256 amount\n    ) internal override(ERC20, ERC20Votes) {\n        super._afterTokenTransfer(from, to, amount);\n    }\n\n    /**\n     * \n     */\n    function _mint(address to, uint256 amount)\n        internal\n        override(ERC20, ERC20Votes)\n    {\n        super._mint(to, amount);\n    }\n\n    /**\n     * \n     */\n    function _burn(address account, uint256 amount)\n        internal\n        override(ERC20, ERC20Votes)\n    {\n        super._burn(account, amount);\n    }\n}",
  "sourcePath": "/Users/harukikondo/git/TheGraphSample2/packages/backend/contracts/Token/MyToken.sol",
  "compiler": {
    "name": "solc",
    "version": "0.8.10+commit.fc410830.Emscripten.clang"
  },
  "schemaVersion": "3.4.13",
  "updatedAt": "2023-04-10T13:58:07.244Z",
  "devdoc": {
    "kind": "dev",
    "methods": {
      "DOMAIN_SEPARATOR()": {
        "details": "See {IERC20Permit-DOMAIN_SEPARATOR}."
      },
      "allowance(address,address)": {
        "details": "See {IERC20-allowance}."
      },
      "approve(address,uint256)": {
        "details": "See {IERC20-approve}. NOTE: If `amount` is the maximum `uint256`, the allowance is not updated on `transferFrom`. This is semantically equivalent to an infinite approval. Requirements: - `spender` cannot be the zero address."
      },
      "balanceOf(address)": {
        "details": "See {IERC20-balanceOf}."
      },
      "burn(uint256)": {
        "details": "Destroys `amount` tokens from the caller. See {ERC20-_burn}."
      },
      "burnFrom(address,uint256)": {
        "details": "Destroys `amount` tokens from `account`, deducting from the caller's allowance. See {ERC20-_burn} and {ERC20-allowance}. Requirements: - the caller must have allowance for ``accounts``'s tokens of at least `amount`."
      },
      "burnToken(address,uint256)": {
        "params": {
          "amount": "",
          "to": ""
        }
      },
      "checkpoints(address,uint32)": {
        "details": "Get the `pos`-th checkpoint for `account`."
      },
      "constructor": {
        "params": {
          "_name": "",
          "_symbol": ""
        }
      },
      "decimals()": {
        "details": "Returns the number of decimals used to get its user representation. For example, if `decimals` equals `2`, a balance of `505` tokens should be displayed to a user as `5.05` (`505 / 10 ** 2`). Tokens usually opt for a value of 18, imitating the relationship between Ether and Wei. This is the value {ERC20} uses, unless this function is overridden; NOTE: This information is only used for _display_ purposes: it in no way affects any of the arithmetic of the contract, including {IERC20-balanceOf} and {IERC20-transfer}."
      },
      "decreaseAllowance(address,uint256)": {
        "details": "Atomically decreases the allowance granted to `spender` by the caller. This is an alternative to {approve} that can be used as a mitigation for problems described in {IERC20-approve}. Emits an {Approval} event indicating the updated allowance. Requirements: - `spender` cannot be the zero address. - `spender` must have allowance for the caller of at least `subtractedValue`."
      },
      "delegate(address)": {
        "details": "Delegate votes from the sender to `delegatee`."
      },
      "delegateBySig(address,uint256,uint256,uint8,bytes32,bytes32)": {
        "details": "Delegates votes from signer to `delegatee`"
      },
      "delegates(address)": {
        "details": "Get the address `account` is currently delegating to."
      },
      "getPastTotalSupply(uint256)": {
        "details": "Retrieve the `totalSupply` at the end of `blockNumber`. Note, this value is the sum of all balances. It is but NOT the sum of all the delegated votes! Requirements: - `blockNumber` must have been already mined"
      },
      "getPastVotes(address,uint256)": {
        "details": "Retrieve the number of votes for `account` at the end of `blockNumber`. Requirements: - `blockNumber` must have been already mined"
      },
      "getVotes(address)": {
        "details": "Gets the current votes balance for `account`"
      },
      "increaseAllowance(address,uint256)": {
        "details": "Atomically increases the allowance granted to `spender` by the caller. This is an alternative to {approve} that can be used as a mitigation for problems described in {IERC20-approve}. Emits an {Approval} event indicating the updated allowance. Requirements: - `spender` cannot be the zero address."
      },
      "mint(address,uint256)": {
        "params": {
          "amount": "",
          "to": ""
        }
      },
      "name()": {
        "details": "Returns the name of the token."
      },
      "nonces(address)": {
        "details": "See {IERC20Permit-nonces}."
      },
      "numCheckpoints(address)": {
        "details": "Get number of checkpoints for `account`."
      },
      "owner()": {
        "details": "Returns the address of the current owner."
      },
      "paused()": {
        "details": "Returns true if the contract is paused, and false otherwise."
      },
      "permit(address,address,uint256,uint256,uint8,bytes32,bytes32)": {
        "details": "See {IERC20Permit-permit}."
      },
      "renounceOwnership()": {
        "details": "Leaves the contract without owner. It will not be possible to call `onlyOwner` functions anymore. Can only be called by the current owner. NOTE: Renouncing ownership will leave the contract without an owner, thereby removing any functionality that is only available to the owner."
      },
      "symbol()": {
        "details": "Returns the symbol of the token, usually a shorter version of the name."
      },
      "totalSupply()": {
        "details": "See {IERC20-totalSupply}."
      },
      "transfer(address,uint256)": {
        "details": "See {IERC20-transfer}. Requirements: - `to` cannot be the zero address. - the caller must have a balance of at least `amount`."
      },
      "transferFrom(address,address,uint256)": {
        "details": "See {IERC20-transferFrom}. Emits an {Approval} event indicating the updated allowance. This is not required by the EIP. See the note at the beginning of {ERC20}. NOTE: Does not update the allowance if the current allowance is the maximum `uint256`. Requirements: - `from` and `to` cannot be the zero address. - `from` must have a balance of at least `amount`. - the caller must have allowance for ``from``'s tokens of at least `amount`."
      },
      "transferOwnership(address)": {
        "details": "Transfers ownership of the contract to a new account (`newOwner`). Can only be called by the current owner."
      }
    },
    "version": 1
  },
  "userdoc": {
    "kind": "user",
    "methods": {
      "burnToken(address,uint256)": {
        "notice": ""
      },
      "constructor": {
        "notice": ""
      },
      "mint(address,uint256)": {
        "notice": ""
      },
      "pause()": {
        "notice": ""
      },
      "unpause()": {
        "notice": ""
      }
    },
    "notice": "MyToken Contract",
    "version": 1
  }
}